{
  "_format": "hh-sol-artifact-1",
  "contractName": "Loops1",
  "sourceName": "contracts/Loops.sol",
  "abi": [
    {
      "inputs": [],
      "name": "countEvenNumbers",
      "outputs": [
        {
          "internalType": "uint256",
          "name": "",
          "type": "uint256"
        }
      ],
      "stateMutability": "view",
      "type": "function"
    }
  ],
  "bytecode": "0x6080604052604051806101400160405280600160ff168152602001600260ff168152602001600360ff168152602001600460ff168152602001600560ff168152602001600660ff168152602001600760ff168152602001600860ff168152602001600960ff168152602001600a60ff16815250600090600a610082929190610095565b5034801561008f57600080fd5b50610104565b8280548282559060005260206000209081019282156100d6579160200282015b828111156100d5578251829060ff169055916020019190600101906100b5565b5b5090506100e391906100e7565b5090565b5b808211156101005760008160009055506001016100e8565b5090565b6101f0806101136000396000f3fe608060405234801561001057600080fd5b506004361061002b5760003560e01c8063306d3e0214610030575b600080fd5b61003861004e565b60405161004591906100c7565b60405180910390f35b6000806000905060005b6000805490508110156100a65760006002826100749190610111565b141561008d57818061008590610171565b925050610092565b610093565b5b808061009e90610171565b915050610058565b508091505090565b6000819050919050565b6100c1816100ae565b82525050565b60006020820190506100dc60008301846100b8565b92915050565b7f4e487b7100000000000000000000000000000000000000000000000000000000600052601260045260246000fd5b600061011c826100ae565b9150610127836100ae565b925082610137576101366100e2565b5b828206905092915050565b7f4e487b7100000000000000000000000000000000000000000000000000000000600052601160045260246000fd5b600061017c826100ae565b91507fffffffffffffffffffffffffffffffffffffffffffffffffffffffffffffffff8214156101af576101ae610142565b5b60018201905091905056fea2646970667358221220d39051af53376ca3fe471828347637c6fc68bace595060cf48be6b9f34c0389064736f6c63430008090033",
  "linkReferences": {},
  "deployedLinkReferences": {}
}