{
  "_format": "hh-sol-artifact-1",
  "contractName": "Loops2",
  "sourceName": "contracts/Loops.sol",
  "abi": [
    {
      "anonymous": false,
      "inputs": [
        {
          "indexed": false,
          "internalType": "uint256",
          "name": "number",
          "type": "uint256"
        }
      ],
      "name": "LogNumber",
      "type": "event"
    },
    {
      "inputs": [],
      "name": "logNumbers",
      "outputs": [
        {
          "internalType": "bool",
          "name": "",
          "type": "bool"
        }
      ],
      "stateMutability": "nonpayable",
      "type": "function"
    }
  ],
  "bytecode": "0x608060405234801561001057600080fd5b506101c9806100206000396000f3fe608060405234801561001057600080fd5b506004361061002b5760003560e01c80638365ba6c14610030575b600080fd5b61003861004e565b60405161004591906100cc565b60405180910390f35b600080600090505b60058110156100a9577f2012ef02e82e91abf55727cc31c3b6e3375003aa9e879f855db72d9e78822c408160405161008e9190610100565b60405180910390a180806100a19061014a565b915050610056565b600191505090565b60008115159050919050565b6100c6816100b1565b82525050565b60006020820190506100e160008301846100bd565b92915050565b6000819050919050565b6100fa816100e7565b82525050565b600060208201905061011560008301846100f1565b92915050565b7f4e487b7100000000000000000000000000000000000000000000000000000000600052601160045260246000fd5b6000610155826100e7565b91507fffffffffffffffffffffffffffffffffffffffffffffffffffffffffffffffff8214156101885761018761011b565b5b60018201905091905056fea26469706673582212209e301c7f5d20d03fa4de3c480e71a133c8aabedaddf3d51368c92a4e49419ecd64736f6c63430008090033",
  "linkReferences": {},
  "deployedLinkReferences": {}
}