{
  "_format": "hh-sol-artifact-1",
  "contractName": "Constructors5",
  "sourceName": "contracts/Constructors.sol",
  "abi": [
    {
      "inputs": [],
      "name": "description",
      "outputs": [
        {
          "internalType": "string",
          "name": "",
          "type": "string"
        }
      ],
      "stateMutability": "view",
      "type": "function"
    },
    {
      "inputs": [],
      "name": "name",
      "outputs": [
        {
          "internalType": "string",
          "name": "",
          "type": "string"
        }
      ],
      "stateMutability": "view",
      "type": "function"
    }
  ],
  "bytecode": "0x60806040526040518060600160405280602481526020016104896024913960019080519060200190610032929190610091565b5034801561003f57600080fd5b506040518060400160405280600981526020017f4578616d706c65203500000000000000000000000000000000000000000000008152506000908051906020019061008b929190610091565b50610195565b82805461009d90610163565b90600052602060002090601f0160209004810192826100bf5760008555610106565b82601f106100d857805160ff1916838001178555610106565b82800160010185558215610106579182015b828111156101055782518255916020019190600101906100ea565b5b5090506101139190610117565b5090565b5b80821115610130576000816000905550600101610118565b5090565b7f4e487b7100000000000000000000000000000000000000000000000000000000600052602260045260246000fd5b6000600282049050600182168061017b57607f821691505b6020821081141561018f5761018e610134565b5b50919050565b6102e5806101a46000396000f3fe608060405234801561001057600080fd5b50600436106100365760003560e01c806306fdde031461003b5780637284e41614610059575b600080fd5b610043610077565b604051610050919061022c565b60405180910390f35b610061610105565b60405161006e919061022c565b60405180910390f35b600080546100849061027d565b80601f01602080910402602001604051908101604052809291908181526020018280546100b09061027d565b80156100fd5780601f106100d2576101008083540402835291602001916100fd565b820191906000526020600020905b8154815290600101906020018083116100e057829003601f168201915b505050505081565b600180546101129061027d565b80601f016020809104026020016040519081016040528092919081815260200182805461013e9061027d565b801561018b5780601f106101605761010080835404028352916020019161018b565b820191906000526020600020905b81548152906001019060200180831161016e57829003601f168201915b505050505081565b600081519050919050565b600082825260208201905092915050565b60005b838110156101cd5780820151818401526020810190506101b2565b838111156101dc576000848401525b50505050565b6000601f19601f8301169050919050565b60006101fe82610193565b610208818561019e565b93506102188185602086016101af565b610221816101e2565b840191505092915050565b6000602082019050818103600083015261024681846101f3565b905092915050565b7f4e487b7100000000000000000000000000000000000000000000000000000000600052602260045260246000fd5b6000600282049050600182168061029557607f821691505b602082108114156102a9576102a861024e565b5b5091905056fea26469706673582212204dd8cc7836051f706d63cb9d356daa813651ae40e8ce1948fa63df1b7d3a61fd64736f6c634300080900335468697320636f6e747261637420696e6865726974732066726f6d20506172656e742031",
  "linkReferences": {},
  "deployedLinkReferences": {}
}