{
  "_format": "hh-sol-artifact-1",
  "contractName": "Constructors6",
  "sourceName": "contracts/Constructors.sol",
  "abi": [
    {
      "inputs": [
        {
          "internalType": "string",
          "name": "_name",
          "type": "string"
        },
        {
          "internalType": "string",
          "name": "_description",
          "type": "string"
        }
      ],
      "stateMutability": "nonpayable",
      "type": "constructor"
    },
    {
      "inputs": [],
      "name": "description",
      "outputs": [
        {
          "internalType": "string",
          "name": "",
          "type": "string"
        }
      ],
      "stateMutability": "view",
      "type": "function"
    },
    {
      "inputs": [],
      "name": "name",
      "outputs": [
        {
          "internalType": "string",
          "name": "",
          "type": "string"
        }
      ],
      "stateMutability": "view",
      "type": "function"
    }
  ],
  "bytecode": "0x608060405234801561001057600080fd5b506040516106573803806106578339818101604052810190610032919061028a565b818060009080519060200190610049929190610069565b50508060019080519060200190610061929190610069565b505050610363565b82805461007590610331565b90600052602060002090601f01602090048101928261009757600085556100de565b82601f106100b057805160ff19168380011785556100de565b828001600101855582156100de579182015b828111156100dd5782518255916020019190600101906100c2565b5b5090506100eb91906100ef565b5090565b5b808211156101085760008160009055506001016100f0565b5090565b6000604051905090565b600080fd5b600080fd5b600080fd5b600080fd5b6000601f19601f8301169050919050565b7f4e487b7100000000000000000000000000000000000000000000000000000000600052604160045260246000fd5b6101738261012a565b810181811067ffffffffffffffff821117156101925761019161013b565b5b80604052505050565b60006101a561010c565b90506101b1828261016a565b919050565b600067ffffffffffffffff8211156101d1576101d061013b565b5b6101da8261012a565b9050602081019050919050565b60005b838110156102055780820151818401526020810190506101ea565b83811115610214576000848401525b50505050565b600061022d610228846101b6565b61019b565b90508281526020810184848401111561024957610248610125565b5b6102548482856101e7565b509392505050565b600082601f83011261027157610270610120565b5b815161028184826020860161021a565b91505092915050565b600080604083850312156102a1576102a0610116565b5b600083015167ffffffffffffffff8111156102bf576102be61011b565b5b6102cb8582860161025c565b925050602083015167ffffffffffffffff8111156102ec576102eb61011b565b5b6102f88582860161025c565b9150509250929050565b7f4e487b7100000000000000000000000000000000000000000000000000000000600052602260045260246000fd5b6000600282049050600182168061034957607f821691505b6020821081141561035d5761035c610302565b5b50919050565b6102e5806103726000396000f3fe608060405234801561001057600080fd5b50600436106100365760003560e01c806306fdde031461003b5780637284e41614610059575b600080fd5b610043610077565b604051610050919061022c565b60405180910390f35b610061610105565b60405161006e919061022c565b60405180910390f35b600080546100849061027d565b80601f01602080910402602001604051908101604052809291908181526020018280546100b09061027d565b80156100fd5780601f106100d2576101008083540402835291602001916100fd565b820191906000526020600020905b8154815290600101906020018083116100e057829003601f168201915b505050505081565b600180546101129061027d565b80601f016020809104026020016040519081016040528092919081815260200182805461013e9061027d565b801561018b5780601f106101605761010080835404028352916020019161018b565b820191906000526020600020905b81548152906001019060200180831161016e57829003601f168201915b505050505081565b600081519050919050565b600082825260208201905092915050565b60005b838110156101cd5780820151818401526020810190506101b2565b838111156101dc576000848401525b50505050565b6000601f19601f8301169050919050565b60006101fe82610193565b610208818561019e565b93506102188185602086016101af565b610221816101e2565b840191505092915050565b6000602082019050818103600083015261024681846101f3565b905092915050565b7f4e487b7100000000000000000000000000000000000000000000000000000000600052602260045260246000fd5b6000600282049050600182168061029557607f821691505b602082108114156102a9576102a861024e565b5b5091905056fea264697066735822122042a1d708de7aec1a810c278062715f8c37702bcd25ff3ba333d8267127d3658464736f6c63430008090033",
  "linkReferences": {},
  "deployedLinkReferences": {}
}