{
  "_format": "hh-sol-artifact-1",
  "contractName": "Ether1",
  "sourceName": "contracts/Ether.sol",
  "abi": [
    {
      "inputs": [],
      "name": "value1",
      "outputs": [
        {
          "internalType": "uint256",
          "name": "",
          "type": "uint256"
        }
      ],
      "stateMutability": "view",
      "type": "function"
    },
    {
      "inputs": [],
      "name": "value2",
      "outputs": [
        {
          "internalType": "uint256",
          "name": "",
          "type": "uint256"
        }
      ],
      "stateMutability": "view",
      "type": "function"
    },
    {
      "inputs": [],
      "name": "value3",
      "outputs": [
        {
          "internalType": "uint256",
          "name": "",
          "type": "uint256"
        }
      ],
      "stateMutability": "view",
      "type": "function"
    },
    {
      "inputs": [],
      "name": "value4",
      "outputs": [
        {
          "internalType": "uint256",
          "name": "",
          "type": "uint256"
        }
      ],
      "stateMutability": "view",
      "type": "function"
    },
    {
      "inputs": [],
      "name": "value5",
      "outputs": [
        {
          "internalType": "uint256",
          "name": "",
          "type": "uint256"
        }
      ],
      "stateMutability": "view",
      "type": "function"
    },
    {
      "inputs": [],
      "name": "value6",
      "outputs": [
        {
          "internalType": "uint256",
          "name": "",
          "type": "uint256"
        }
      ],
      "stateMutability": "view",
      "type": "function"
    }
  ],
  "bytecode": "0x6080604052600160005560018055633b9aca00600255633b9aca00600355670de0b6b3a7640000600455670de0b6b3a764000060055534801561004157600080fd5b506101a9806100516000396000f3fe608060405234801561001057600080fd5b50600436106100625760003560e01c80633033413b146100675780633d0edd69146100855780633f15d041146100a3578063517f5fa7146100c15780635d33a27f146100df578063aef52a2c146100fd575b600080fd5b61006f61011b565b60405161007c9190610158565b60405180910390f35b61008d610121565b60405161009a9190610158565b60405180910390f35b6100ab610127565b6040516100b89190610158565b60405180910390f35b6100c961012d565b6040516100d69190610158565b60405180910390f35b6100e7610133565b6040516100f49190610158565b60405180910390f35b610105610139565b6040516101129190610158565b60405180910390f35b60005481565b60045481565b60055481565b60035481565b60015481565b60025481565b6000819050919050565b6101528161013f565b82525050565b600060208201905061016d6000830184610149565b9291505056fea26469706673582212201f8113fda06de32027d8a67413f26c8d13fd4afb7a3881d6742386ea2b9a2a8264736f6c63430008090033",
  "linkReferences": {},
  "deployedLinkReferences": {}
}