{
  "_format": "hh-sol-artifact-1",
  "contractName": "Ether5",
  "sourceName": "contracts/Ether.sol",
  "abi": [
    {
      "inputs": [],
      "name": "balance",
      "outputs": [
        {
          "internalType": "uint256",
          "name": "",
          "type": "uint256"
        }
      ],
      "stateMutability": "view",
      "type": "function"
    },
    {
      "inputs": [],
      "name": "deposit1",
      "outputs": [],
      "stateMutability": "nonpayable",
      "type": "function"
    },
    {
      "inputs": [],
      "name": "deposit2",
      "outputs": [],
      "stateMutability": "payable",
      "type": "function"
    }
  ],
  "bytecode": "0x608060405234801561001057600080fd5b50610196806100206000396000f3fe6080604052600436106100345760003560e01c8063539c0f1414610039578063b69ef8a814610043578063c8f73d981461006e575b600080fd5b610041610085565b005b34801561004f57600080fd5b5061005861009f565b60405161006591906100c0565b60405180910390f35b34801561007a57600080fd5b506100836100a5565b005b34600080828254610096919061010a565b92505081905550565b60005481565b565b6000819050919050565b6100ba816100a7565b82525050565b60006020820190506100d560008301846100b1565b92915050565b7f4e487b7100000000000000000000000000000000000000000000000000000000600052601160045260246000fd5b6000610115826100a7565b9150610120836100a7565b9250827fffffffffffffffffffffffffffffffffffffffffffffffffffffffffffffffff03821115610155576101546100db565b5b82820190509291505056fea264697066735822122047300ad673ba955f1038d6064776322ba574485328c0147e8394a1651d5a27b764736f6c63430008090033",
  "linkReferences": {},
  "deployedLinkReferences": {}
}