{
  "_format": "hh-sol-artifact-1",
  "contractName": "Ether3",
  "sourceName": "contracts/Ether.sol",
  "abi": [
    {
      "stateMutability": "payable",
      "type": "fallback"
    },
    {
      "inputs": [],
      "name": "checkBalance",
      "outputs": [
        {
          "internalType": "uint256",
          "name": "",
          "type": "uint256"
        }
      ],
      "stateMutability": "view",
      "type": "function"
    },
    {
      "inputs": [],
      "name": "count",
      "outputs": [
        {
          "internalType": "uint256",
          "name": "",
          "type": "uint256"
        }
      ],
      "stateMutability": "view",
      "type": "function"
    }
  ],
  "bytecode": "0x60806040526000805534801561001457600080fd5b5061018d806100246000396000f3fe60806040526004361061002d5760003560e01c806306661abd14610047578063c71daccb146100725761002e565b5b600080815480929190610040906100e4565b9190505550005b34801561005357600080fd5b5061005c61009d565b604051610069919061013c565b60405180910390f35b34801561007e57600080fd5b506100876100a3565b604051610094919061013c565b60405180910390f35b60005481565b600047905090565b7f4e487b7100000000000000000000000000000000000000000000000000000000600052601160045260246000fd5b6000819050919050565b60006100ef826100da565b91507fffffffffffffffffffffffffffffffffffffffffffffffffffffffffffffffff821415610122576101216100ab565b5b600182019050919050565b610136816100da565b82525050565b6000602082019050610151600083018461012d565b9291505056fea26469706673582212200afc458c6ac21b7e659e8fb2caaa9d27ba6d922246a0a3eeeb0ec67c6979574464736f6c63430008090033",
  "linkReferences": {},
  "deployedLinkReferences": {}
}