{
  "_format": "hh-sol-artifact-1",
  "contractName": "Time1",
  "sourceName": "contracts/Time.sol",
  "abi": [
    {
      "inputs": [
        {
          "internalType": "uint256",
          "name": "_depositStartTime",
          "type": "uint256"
        },
        {
          "internalType": "uint256",
          "name": "_withdrawStartTime",
          "type": "uint256"
        }
      ],
      "stateMutability": "nonpayable",
      "type": "constructor"
    },
    {
      "inputs": [],
      "name": "deposit",
      "outputs": [],
      "stateMutability": "payable",
      "type": "function"
    },
    {
      "inputs": [],
      "name": "depositStartTime",
      "outputs": [
        {
          "internalType": "uint256",
          "name": "",
          "type": "uint256"
        }
      ],
      "stateMutability": "view",
      "type": "function"
    },
    {
      "inputs": [],
      "name": "owner",
      "outputs": [
        {
          "internalType": "address",
          "name": "",
          "type": "address"
        }
      ],
      "stateMutability": "view",
      "type": "function"
    },
    {
      "inputs": [],
      "name": "withdraw",
      "outputs": [],
      "stateMutability": "nonpayable",
      "type": "function"
    },
    {
      "inputs": [],
      "name": "withdrawStartTime",
      "outputs": [
        {
          "internalType": "uint256",
          "name": "",
          "type": "uint256"
        }
      ],
      "stateMutability": "view",
      "type": "function"
    }
  ],
  "bytecode": "0x608060405234801561001057600080fd5b506040516106db3803806106db833981810160405281019061003291906100c2565b336000806101000a81548173ffffffffffffffffffffffffffffffffffffffff021916908373ffffffffffffffffffffffffffffffffffffffff16021790555081600181905550806002819055505050610102565b600080fd5b6000819050919050565b61009f8161008c565b81146100aa57600080fd5b50565b6000815190506100bc81610096565b92915050565b600080604083850312156100d9576100d8610087565b5b60006100e7858286016100ad565b92505060206100f8858286016100ad565b9150509250929050565b6105ca806101116000396000f3fe60806040526004361061004a5760003560e01c8063079cff0a1461004f5780633ccfd60b1461007a578063587419d5146100915780638da5cb5b146100bc578063d0e30db0146100e7575b600080fd5b34801561005b57600080fd5b506100646100f1565b6040516100719190610382565b60405180910390f35b34801561008657600080fd5b5061008f6100f7565b005b34801561009d57600080fd5b506100a661026a565b6040516100b39190610382565b60405180910390f35b3480156100c857600080fd5b506100d1610270565b6040516100de91906103de565b60405180910390f35b6100ef610294565b005b60025481565b60008054906101000a900473ffffffffffffffffffffffffffffffffffffffff1673ffffffffffffffffffffffffffffffffffffffff163373ffffffffffffffffffffffffffffffffffffffff1614610185576040517f08c379a000000000000000000000000000000000000000000000000000000000815260040161017c90610456565b60405180910390fd5b6002544210156101ca576040517f08c379a00000000000000000000000000000000000000000000000000000000081526004016101c1906104c2565b60405180910390fd5b600047905060008060009054906101000a900473ffffffffffffffffffffffffffffffffffffffff1673ffffffffffffffffffffffffffffffffffffffff168260405161021690610513565b60006040518083038185875af1925050503d8060008114610253576040519150601f19603f3d011682016040523d82523d6000602084013e610258565b606091505b505090508061026657600080fd5b5050565b60015481565b60008054906101000a900473ffffffffffffffffffffffffffffffffffffffff1681565b60008054906101000a900473ffffffffffffffffffffffffffffffffffffffff1673ffffffffffffffffffffffffffffffffffffffff163373ffffffffffffffffffffffffffffffffffffffff1614610322576040517f08c379a000000000000000000000000000000000000000000000000000000000815260040161031990610456565b60405180910390fd5b600154421015610367576040517f08c379a000000000000000000000000000000000000000000000000000000000815260040161035e90610574565b60405180910390fd5b565b6000819050919050565b61037c81610369565b82525050565b60006020820190506103976000830184610373565b92915050565b600073ffffffffffffffffffffffffffffffffffffffff82169050919050565b60006103c88261039d565b9050919050565b6103d8816103bd565b82525050565b60006020820190506103f360008301846103cf565b92915050565b600082825260208201905092915050565b7f63616c6c6572206d757374206265206f776e6572000000000000000000000000600082015250565b60006104406014836103f9565b915061044b8261040a565b602082019050919050565b6000602082019050818103600083015261046f81610433565b9050919050565b7f63616e6e6f742077697468647261772079657400000000000000000000000000600082015250565b60006104ac6013836103f9565b91506104b782610476565b602082019050919050565b600060208201905081810360008301526104db8161049f565b9050919050565b600081905092915050565b50565b60006104fd6000836104e2565b9150610508826104ed565b600082019050919050565b600061051e826104f0565b9150819050919050565b7f63616e6e6f74206465706f736974207965740000000000000000000000000000600082015250565b600061055e6012836103f9565b915061056982610528565b602082019050919050565b6000602082019050818103600083015261058d81610551565b905091905056fea26469706673582212207e19205e7818138d66efa7d91fefc24d6e4e8c6e80cff0d7b65b179d0c899a9264736f6c63430008090033",
  "linkReferences": {},
  "deployedLinkReferences": {}
}