{
  "_format": "hh-sol-artifact-1",
  "contractName": "Events1",
  "sourceName": "contracts/Events.sol",
  "abi": [
    {
      "anonymous": false,
      "inputs": [
        {
          "indexed": true,
          "internalType": "address",
          "name": "_user",
          "type": "address"
        },
        {
          "indexed": false,
          "internalType": "string",
          "name": "_message",
          "type": "string"
        }
      ],
      "name": "MessageUpdated",
      "type": "event"
    },
    {
      "inputs": [],
      "name": "message",
      "outputs": [
        {
          "internalType": "string",
          "name": "",
          "type": "string"
        }
      ],
      "stateMutability": "view",
      "type": "function"
    },
    {
      "inputs": [
        {
          "internalType": "string",
          "name": "_message",
          "type": "string"
        }
      ],
      "name": "updateMessage",
      "outputs": [],
      "stateMutability": "nonpayable",
      "type": "function"
    }
  ],
  "bytecode": "0x60806040526040518060400160405280600b81526020017f48656c6c6f20576f726c640000000000000000000000000000000000000000008152506000908051906020019061004f929190610062565b5034801561005c57600080fd5b50610166565b82805461006e90610134565b90600052602060002090601f01602090048101928261009057600085556100d7565b82601f106100a957805160ff19168380011785556100d7565b828001600101855582156100d7579182015b828111156100d65782518255916020019190600101906100bb565b5b5090506100e491906100e8565b5090565b5b808211156101015760008160009055506001016100e9565b5090565b7f4e487b7100000000000000000000000000000000000000000000000000000000600052602260045260246000fd5b6000600282049050600182168061014c57607f821691505b602082108114156101605761015f610105565b5b50919050565b6104f2806101756000396000f3fe608060405234801561001057600080fd5b50600436106100365760003560e01c80631923be241461003b578063e21f37ce14610057575b600080fd5b61005560048036038101906100509190610368565b610075565b005b61005f6100dd565b60405161006c9190610439565b60405180910390f35b806000908051906020019061008b92919061016b565b503373ffffffffffffffffffffffffffffffffffffffff167f3f784155aa459466ce143eb76c376834c30b26979da03bd4be74cd146c4bb1c3826040516100d29190610439565b60405180910390a250565b600080546100ea9061048a565b80601f01602080910402602001604051908101604052809291908181526020018280546101169061048a565b80156101635780601f1061013857610100808354040283529160200191610163565b820191906000526020600020905b81548152906001019060200180831161014657829003601f168201915b505050505081565b8280546101779061048a565b90600052602060002090601f01602090048101928261019957600085556101e0565b82601f106101b257805160ff19168380011785556101e0565b828001600101855582156101e0579182015b828111156101df5782518255916020019190600101906101c4565b5b5090506101ed91906101f1565b5090565b5b8082111561020a5760008160009055506001016101f2565b5090565b6000604051905090565b600080fd5b600080fd5b600080fd5b600080fd5b6000601f19601f8301169050919050565b7f4e487b7100000000000000000000000000000000000000000000000000000000600052604160045260246000fd5b6102758261022c565b810181811067ffffffffffffffff821117156102945761029361023d565b5b80604052505050565b60006102a761020e565b90506102b3828261026c565b919050565b600067ffffffffffffffff8211156102d3576102d261023d565b5b6102dc8261022c565b9050602081019050919050565b82818337600083830152505050565b600061030b610306846102b8565b61029d565b90508281526020810184848401111561032757610326610227565b5b6103328482856102e9565b509392505050565b600082601f83011261034f5761034e610222565b5b813561035f8482602086016102f8565b91505092915050565b60006020828403121561037e5761037d610218565b5b600082013567ffffffffffffffff81111561039c5761039b61021d565b5b6103a88482850161033a565b91505092915050565b600081519050919050565b600082825260208201905092915050565b60005b838110156103eb5780820151818401526020810190506103d0565b838111156103fa576000848401525b50505050565b600061040b826103b1565b61041581856103bc565b93506104258185602086016103cd565b61042e8161022c565b840191505092915050565b600060208201905081810360008301526104538184610400565b905092915050565b7f4e487b7100000000000000000000000000000000000000000000000000000000600052602260045260246000fd5b600060028204905060018216806104a257607f821691505b602082108114156104b6576104b561045b565b5b5091905056fea2646970667358221220b67c4f0a5055baf24f48c3d24b9d5892efc86a1fc21ae03634f6cd389fe4a25c64736f6c63430008090033",
  "linkReferences": {},
  "deployedLinkReferences": {}
}