{
  "_format": "hh-sol-artifact-1",
  "contractName": "Conditionals1",
  "sourceName": "contracts/Conditionals.sol",
  "abi": [
    {
      "inputs": [
        {
          "internalType": "uint256",
          "name": "x",
          "type": "uint256"
        }
      ],
      "name": "evenOrOdd1",
      "outputs": [
        {
          "internalType": "string",
          "name": "",
          "type": "string"
        }
      ],
      "stateMutability": "pure",
      "type": "function"
    },
    {
      "inputs": [
        {
          "internalType": "uint256",
          "name": "x",
          "type": "uint256"
        }
      ],
      "name": "evenOrOdd2",
      "outputs": [
        {
          "internalType": "string",
          "name": "",
          "type": "string"
        }
      ],
      "stateMutability": "pure",
      "type": "function"
    },
    {
      "inputs": [
        {
          "internalType": "uint256",
          "name": "x",
          "type": "uint256"
        }
      ],
      "name": "evenOrOdd3",
      "outputs": [
        {
          "internalType": "string",
          "name": "",
          "type": "string"
        }
      ],
      "stateMutability": "pure",
      "type": "function"
    }
  ],
  "bytecode": "0x608060405234801561001057600080fd5b50610442806100206000396000f3fe608060405234801561001057600080fd5b50600436106100415760003560e01c8063906166e11461004657806392fa555914610076578063b28ffd78146100a6575b600080fd5b610060600480360381019061005b91906102c4565b6100d6565b60405161006d919061038a565b60405180910390f35b610090600480360381019061008b91906102c4565b610165565b60405161009d919061038a565b60405180910390f35b6100c060048036038101906100bb91906102c4565b6101f7565b6040516100cd919061038a565b60405180910390f35b606060006002836100e791906103db565b14610127576040518060400160405280600381526020017f6f6464000000000000000000000000000000000000000000000000000000000081525061015e565b6040518060400160405280600481526020017f6576656e000000000000000000000000000000000000000000000000000000008152505b9050919050565b6060600060028361017691906103db565b14156101b9576040518060400160405280600481526020017f6576656e0000000000000000000000000000000000000000000000000000000081525090506101f2565b6040518060400160405280600381526020017f6f6464000000000000000000000000000000000000000000000000000000000081525090505b919050565b6060600060028361020891906103db565b141561024b576040518060400160405280600481526020017f6576656e000000000000000000000000000000000000000000000000000000008152509050610284565b6040518060400160405280600381526020017f6f6464000000000000000000000000000000000000000000000000000000000081525090505b919050565b600080fd5b6000819050919050565b6102a18161028e565b81146102ac57600080fd5b50565b6000813590506102be81610298565b92915050565b6000602082840312156102da576102d9610289565b5b60006102e8848285016102af565b91505092915050565b600081519050919050565b600082825260208201905092915050565b60005b8381101561032b578082015181840152602081019050610310565b8381111561033a576000848401525b50505050565b6000601f19601f8301169050919050565b600061035c826102f1565b61036681856102fc565b935061037681856020860161030d565b61037f81610340565b840191505092915050565b600060208201905081810360008301526103a48184610351565b905092915050565b7f4e487b7100000000000000000000000000000000000000000000000000000000600052601260045260246000fd5b60006103e68261028e565b91506103f18361028e565b925082610401576104006103ac565b5b82820690509291505056fea264697066735822122015dd6163a8cf56284e22386273f5368eec32ef15ae4dc1191532f385c529c64164736f6c63430008090033",
  "linkReferences": {},
  "deployedLinkReferences": {}
}