{
  "_format": "hh-sol-artifact-1",
  "contractName": "Conditionals2",
  "sourceName": "contracts/Conditionals.sol",
  "abi": [
    {
      "inputs": [
        {
          "internalType": "uint256",
          "name": "x",
          "type": "uint256"
        }
      ],
      "name": "checkNumber1",
      "outputs": [
        {
          "internalType": "uint256",
          "name": "",
          "type": "uint256"
        }
      ],
      "stateMutability": "pure",
      "type": "function"
    },
    {
      "inputs": [
        {
          "internalType": "uint256",
          "name": "x",
          "type": "uint256"
        }
      ],
      "name": "checkNumber2",
      "outputs": [
        {
          "internalType": "uint256",
          "name": "",
          "type": "uint256"
        }
      ],
      "stateMutability": "pure",
      "type": "function"
    }
  ],
  "bytecode": "0x608060405234801561001057600080fd5b506101d5806100206000396000f3fe608060405234801561001057600080fd5b50600436106100365760003560e01c8063562e1d101461003b5780635ee6fb351461006b575b600080fd5b61005560048036038101906100509190610148565b61009b565b6040516100629190610184565b60405180910390f35b61008560048036038101906100809190610148565b6100cb565b6040516100929190610184565b60405180910390f35b6000600a8210156100af57600090506100c6565b60648210156100c157600190506100c6565b600290505b919050565b6000600a8210156100f15760058210156100e85760009050610108565b60019050610108565b60648210156101035760029050610108565b600390505b919050565b600080fd5b6000819050919050565b61012581610112565b811461013057600080fd5b50565b6000813590506101428161011c565b92915050565b60006020828403121561015e5761015d61010d565b5b600061016c84828501610133565b91505092915050565b61017e81610112565b82525050565b60006020820190506101996000830184610175565b9291505056fea2646970667358221220033e17432d525122318afb8ee4e8c9e06dd7e1a1df479fc195e9dd66332bb8fd64736f6c63430008090033",
  "linkReferences": {},
  "deployedLinkReferences": {}
}