{
  "_format": "hh-sol-artifact-1",
  "contractName": "Types1",
  "sourceName": "contracts/Types.sol",
  "abi": [
    {
      "inputs": [],
      "name": "boolean1",
      "outputs": [
        {
          "internalType": "bool",
          "name": "",
          "type": "bool"
        }
      ],
      "stateMutability": "view",
      "type": "function"
    },
    {
      "inputs": [],
      "name": "boolean2",
      "outputs": [
        {
          "internalType": "bool",
          "name": "",
          "type": "bool"
        }
      ],
      "stateMutability": "view",
      "type": "function"
    },
    {
      "inputs": [],
      "name": "myAddress",
      "outputs": [
        {
          "internalType": "address",
          "name": "",
          "type": "address"
        }
      ],
      "stateMutability": "view",
      "type": "function"
    },
    {
      "inputs": [],
      "name": "myBytes32",
      "outputs": [
        {
          "internalType": "bytes32",
          "name": "",
          "type": "bytes32"
        }
      ],
      "stateMutability": "view",
      "type": "function"
    },
    {
      "inputs": [],
      "name": "myInt1",
      "outputs": [
        {
          "internalType": "int256",
          "name": "",
          "type": "int256"
        }
      ],
      "stateMutability": "view",
      "type": "function"
    },
    {
      "inputs": [],
      "name": "myInt2",
      "outputs": [
        {
          "internalType": "int256",
          "name": "",
          "type": "int256"
        }
      ],
      "stateMutability": "view",
      "type": "function"
    },
    {
      "inputs": [],
      "name": "myInt3",
      "outputs": [
        {
          "internalType": "int256",
          "name": "",
          "type": "int256"
        }
      ],
      "stateMutability": "view",
      "type": "function"
    },
    {
      "inputs": [],
      "name": "myInt4",
      "outputs": [
        {
          "internalType": "int256",
          "name": "",
          "type": "int256"
        }
      ],
      "stateMutability": "view",
      "type": "function"
    },
    {
      "inputs": [],
      "name": "myString",
      "outputs": [
        {
          "internalType": "string",
          "name": "",
          "type": "string"
        }
      ],
      "stateMutability": "view",
      "type": "function"
    },
    {
      "inputs": [],
      "name": "myUInt5",
      "outputs": [
        {
          "internalType": "uint8",
          "name": "",
          "type": "uint8"
        }
      ],
      "stateMutability": "view",
      "type": "function"
    },
    {
      "inputs": [],
      "name": "myUInt6",
      "outputs": [
        {
          "internalType": "uint16",
          "name": "",
          "type": "uint16"
        }
      ],
      "stateMutability": "view",
      "type": "function"
    },
    {
      "inputs": [],
      "name": "myUint1",
      "outputs": [
        {
          "internalType": "uint256",
          "name": "",
          "type": "uint256"
        }
      ],
      "stateMutability": "view",
      "type": "function"
    },
    {
      "inputs": [],
      "name": "myUint2",
      "outputs": [
        {
          "internalType": "uint256",
          "name": "",
          "type": "uint256"
        }
      ],
      "stateMutability": "view",
      "type": "function"
    },
    {
      "inputs": [],
      "name": "myUint3",
      "outputs": [
        {
          "internalType": "uint256",
          "name": "",
          "type": "uint256"
        }
      ],
      "stateMutability": "view",
      "type": "function"
    },
    {
      "inputs": [],
      "name": "myUint4",
      "outputs": [
        {
          "internalType": "uint8",
          "name": "",
          "type": "uint8"
        }
      ],
      "stateMutability": "view",
      "type": "function"
    },
    {
      "inputs": [],
      "name": "myUint5",
      "outputs": [
        {
          "internalType": "uint16",
          "name": "",
          "type": "uint16"
        }
      ],
      "stateMutability": "view",
      "type": "function"
    }
  ],
  "bytecode": "0x608060405260016000806101000a81548160ff0219169083151502179055506001805560016003556001600460006101000a81548160ff021916908360ff1602179055506001600460016101000a81548161ffff021916908361ffff16021790555060016005557fffffffffffffffffffffffffffffffffffffffffffffffffffffffffffffffff60075560016008556001600960006101000a81548160ff021916908360ff1602179055506001600960016101000a81548161ffff021916908361ffff1602179055506040518060400160405280600981526020017f4d7920737472696e670000000000000000000000000000000000000000000000815250600a90805190602001906101149291906101a0565b507f4d79204279746573203332000000000000000000000000000000000000000000600b557352bc44d5378309ee2abf1539bf71de1b7d7be3b5600c60006101000a81548173ffffffffffffffffffffffffffffffffffffffff021916908373ffffffffffffffffffffffffffffffffffffffff16021790555034801561019a57600080fd5b506102a4565b8280546101ac90610272565b90600052602060002090601f0160209004810192826101ce5760008555610215565b82601f106101e757805160ff1916838001178555610215565b82800160010185558215610215579182015b828111156102145782518255916020019190600101906101f9565b5b5090506102229190610226565b5090565b5b8082111561023f576000816000905550600101610227565b5090565b7f4e487b7100000000000000000000000000000000000000000000000000000000600052602260045260246000fd5b6000600282049050600182168061028a57607f821691505b6020821081141561029e5761029d610243565b5b50919050565b61072a806102b36000396000f3fe608060405234801561001057600080fd5b50600436106101005760003560e01c8063aa9cc77511610097578063d80b1d3711610066578063d80b1d371461026d578063da0a31901461028b578063f87a09ab146102a9578063fef03b20146102c757610100565b8063aa9cc775146101f5578063b04d939714610213578063ce0e15c814610231578063d7353c6e1461024f57610100565b806341d35ac2116100d357806341d35ac21461017d578063492bfa181461019b5780634b3e7e0c146101b95780639cd6e664146101d757610100565b80631a818054146101055780632372bccd1461012357806326b85ee1146101415780632c84a0431461015f575b600080fd5b61010d6102e5565b60405161011a9190610456565b60405180910390f35b61012b6102f6565b604051610138919061048a565b60405180910390f35b6101496102fc565b60405161015691906104e6565b60405180910390f35b610167610322565b604051610174919061048a565b60405180910390f35b610185610328565b604051610192919061051a565b60405180910390f35b6101a361032e565b6040516101b091906105ce565b60405180910390f35b6101c16103bc565b6040516101ce9190610609565b60405180910390f35b6101df6103c2565b6040516101ec919061048a565b60405180910390f35b6101fd6103c8565b60405161020a919061051a565b60405180910390f35b61021b6103ce565b6040516102289190610641565b60405180910390f35b6102396103e2565b604051610246919061051a565b60405180910390f35b6102576103e8565b604051610264919061048a565b60405180910390f35b6102756103ee565b6040516102829190610456565b60405180910390f35b610293610401565b6040516102a09190610678565b60405180910390f35b6102b1610414565b6040516102be9190610641565b60405180910390f35b6102cf610428565b6040516102dc9190610678565b60405180910390f35b60008054906101000a900460ff1681565b60065481565b600c60009054906101000a900473ffffffffffffffffffffffffffffffffffffffff1681565b60055481565b60015481565b600a805461033b906106c2565b80601f0160208091040260200160405190810160405280929190818152602001828054610367906106c2565b80156103b45780601f10610389576101008083540402835291602001916103b4565b820191906000526020600020905b81548152906001019060200180831161039757829003601f168201915b505050505081565b600b5481565b60085481565b60025481565b600460019054906101000a900461ffff1681565b60035481565b60075481565b600060019054906101000a900460ff1681565b600460009054906101000a900460ff1681565b600960019054906101000a900461ffff1681565b600960009054906101000a900460ff1681565b60008115159050919050565b6104508161043b565b82525050565b600060208201905061046b6000830184610447565b92915050565b6000819050919050565b61048481610471565b82525050565b600060208201905061049f600083018461047b565b92915050565b600073ffffffffffffffffffffffffffffffffffffffff82169050919050565b60006104d0826104a5565b9050919050565b6104e0816104c5565b82525050565b60006020820190506104fb60008301846104d7565b92915050565b6000819050919050565b61051481610501565b82525050565b600060208201905061052f600083018461050b565b92915050565b600081519050919050565b600082825260208201905092915050565b60005b8381101561056f578082015181840152602081019050610554565b8381111561057e576000848401525b50505050565b6000601f19601f8301169050919050565b60006105a082610535565b6105aa8185610540565b93506105ba818560208601610551565b6105c381610584565b840191505092915050565b600060208201905081810360008301526105e88184610595565b905092915050565b6000819050919050565b610603816105f0565b82525050565b600060208201905061061e60008301846105fa565b92915050565b600061ffff82169050919050565b61063b81610624565b82525050565b60006020820190506106566000830184610632565b92915050565b600060ff82169050919050565b6106728161065c565b82525050565b600060208201905061068d6000830184610669565b92915050565b7f4e487b7100000000000000000000000000000000000000000000000000000000600052602260045260246000fd5b600060028204905060018216806106da57607f821691505b602082108114156106ee576106ed610693565b5b5091905056fea264697066735822122020a2d421efd9705e581b29ab9db41d29a43bbf9e7745c53522d916d94db5f47364736f6c63430008090033",
  "linkReferences": {},
  "deployedLinkReferences": {}
}