{
  "_format": "hh-sol-artifact-1",
  "contractName": "Mappings1",
  "sourceName": "contracts/Mappings.sol",
  "abi": [
    {
      "inputs": [],
      "stateMutability": "nonpayable",
      "type": "constructor"
    },
    {
      "inputs": [
        {
          "internalType": "uint256",
          "name": "",
          "type": "uint256"
        }
      ],
      "name": "addresses",
      "outputs": [
        {
          "internalType": "address",
          "name": "",
          "type": "address"
        }
      ],
      "stateMutability": "view",
      "type": "function"
    },
    {
      "inputs": [
        {
          "internalType": "address",
          "name": "",
          "type": "address"
        }
      ],
      "name": "balances",
      "outputs": [
        {
          "internalType": "uint256",
          "name": "",
          "type": "uint256"
        }
      ],
      "stateMutability": "view",
      "type": "function"
    },
    {
      "inputs": [
        {
          "internalType": "address",
          "name": "",
          "type": "address"
        }
      ],
      "name": "hasVoted",
      "outputs": [
        {
          "internalType": "bool",
          "name": "",
          "type": "bool"
        }
      ],
      "stateMutability": "view",
      "type": "function"
    },
    {
      "inputs": [
        {
          "internalType": "uint256",
          "name": "",
          "type": "uint256"
        }
      ],
      "name": "names",
      "outputs": [
        {
          "internalType": "string",
          "name": "",
          "type": "string"
        }
      ],
      "stateMutability": "view",
      "type": "function"
    }
  ],
  "bytecode": "0x608060405234801561001057600080fd5b506040518060400160405280600481526020017f4164616d0000000000000000000000000000000000000000000000000000000081525060008060018152602001908152602001600020908051906020019061006d929190610336565b506040518060400160405280600381526020017f42656e00000000000000000000000000000000000000000000000000000000008152506000806002815260200190815260200160002090805190602001906100ca929190610336565b50733ecef08d0e2dad803847e052249bb4f8bff2d5bb600160006001815260200190815260200160002060006101000a81548173ffffffffffffffffffffffffffffffffffffffff021916908373ffffffffffffffffffffffffffffffffffffffff16021790555073e5c430b2dd2150a20f25c7fede9981f767a48a3c600160006002815260200190815260200160002060006101000a81548173ffffffffffffffffffffffffffffffffffffffff021916908373ffffffffffffffffffffffffffffffffffffffff160217905550670de0b6b3a764000060026000733ecef08d0e2dad803847e052249bb4f8bff2d5bb73ffffffffffffffffffffffffffffffffffffffff1673ffffffffffffffffffffffffffffffffffffffff16815260200190815260200160002081905550671bc16d674ec800006002600073e5c430b2dd2150a20f25c7fede9981f767a48a3c73ffffffffffffffffffffffffffffffffffffffff1673ffffffffffffffffffffffffffffffffffffffff16815260200190815260200160002081905550600160036000733ecef08d0e2dad803847e052249bb4f8bff2d5bb73ffffffffffffffffffffffffffffffffffffffff1673ffffffffffffffffffffffffffffffffffffffff16815260200190815260200160002060006101000a81548160ff02191690831515021790555060016003600073e5c430b2dd2150a20f25c7fede9981f767a48a3c73ffffffffffffffffffffffffffffffffffffffff1673ffffffffffffffffffffffffffffffffffffffff16815260200190815260200160002060006101000a81548160ff02191690831515021790555061043a565b82805461034290610408565b90600052602060002090601f01602090048101928261036457600085556103ab565b82601f1061037d57805160ff19168380011785556103ab565b828001600101855582156103ab579182015b828111156103aa57825182559160200191906001019061038f565b5b5090506103b891906103bc565b5090565b5b808211156103d55760008160009055506001016103bd565b5090565b7f4e487b7100000000000000000000000000000000000000000000000000000000600052602260045260246000fd5b6000600282049050600182168061042057607f821691505b60208210811415610434576104336103d9565b5b50919050565b6104eb806104496000396000f3fe608060405234801561001057600080fd5b506004361061004c5760003560e01c806309eef43e1461005157806327e235e3146100815780634622ab03146100b1578063edf26d9b146100e1575b600080fd5b61006b6004803603810190610066919061027f565b610111565b60405161007891906102c7565b60405180910390f35b61009b6004803603810190610096919061027f565b610131565b6040516100a891906102fb565b60405180910390f35b6100cb60048036038101906100c69190610342565b610149565b6040516100d89190610408565b60405180910390f35b6100fb60048036038101906100f69190610342565b6101e9565b6040516101089190610439565b60405180910390f35b60036020528060005260406000206000915054906101000a900460ff1681565b60026020528060005260406000206000915090505481565b6000602052806000526040600020600091509050805461016890610483565b80601f016020809104026020016040519081016040528092919081815260200182805461019490610483565b80156101e15780601f106101b6576101008083540402835291602001916101e1565b820191906000526020600020905b8154815290600101906020018083116101c457829003601f168201915b505050505081565b60016020528060005260406000206000915054906101000a900473ffffffffffffffffffffffffffffffffffffffff1681565b600080fd5b600073ffffffffffffffffffffffffffffffffffffffff82169050919050565b600061024c82610221565b9050919050565b61025c81610241565b811461026757600080fd5b50565b60008135905061027981610253565b92915050565b6000602082840312156102955761029461021c565b5b60006102a38482850161026a565b91505092915050565b60008115159050919050565b6102c1816102ac565b82525050565b60006020820190506102dc60008301846102b8565b92915050565b6000819050919050565b6102f5816102e2565b82525050565b600060208201905061031060008301846102ec565b92915050565b61031f816102e2565b811461032a57600080fd5b50565b60008135905061033c81610316565b92915050565b6000602082840312156103585761035761021c565b5b60006103668482850161032d565b91505092915050565b600081519050919050565b600082825260208201905092915050565b60005b838110156103a957808201518184015260208101905061038e565b838111156103b8576000848401525b50505050565b6000601f19601f8301169050919050565b60006103da8261036f565b6103e4818561037a565b93506103f481856020860161038b565b6103fd816103be565b840191505092915050565b6000602082019050818103600083015261042281846103cf565b905092915050565b61043381610241565b82525050565b600060208201905061044e600083018461042a565b92915050565b7f4e487b7100000000000000000000000000000000000000000000000000000000600052602260045260246000fd5b6000600282049050600182168061049b57607f821691505b602082108114156104af576104ae610454565b5b5091905056fea264697066735822122076879ef5618fa1ad92a042d283a3a49938964e22acc0cf1562edf642c69b3b5464736f6c63430008090033",
  "linkReferences": {},
  "deployedLinkReferences": {}
}