{
  "_format": "hh-sol-artifact-1",
  "contractName": "Mappings2",
  "sourceName": "contracts/Mappings.sol",
  "abi": [
    {
      "inputs": [],
      "stateMutability": "nonpayable",
      "type": "constructor"
    },
    {
      "inputs": [
        {
          "internalType": "address",
          "name": "",
          "type": "address"
        },
        {
          "internalType": "address",
          "name": "",
          "type": "address"
        }
      ],
      "name": "balances",
      "outputs": [
        {
          "internalType": "uint256",
          "name": "",
          "type": "uint256"
        }
      ],
      "stateMutability": "view",
      "type": "function"
    },
    {
      "inputs": [
        {
          "internalType": "uint256",
          "name": "",
          "type": "uint256"
        }
      ],
      "name": "books",
      "outputs": [
        {
          "internalType": "string",
          "name": "author",
          "type": "string"
        },
        {
          "internalType": "string",
          "name": "title",
          "type": "string"
        }
      ],
      "stateMutability": "view",
      "type": "function"
    }
  ],
  "bytecode": "0x608060405234801561001057600080fd5b5060405180604001604052806040518060400160405280601481526020017f412054616c65206f662054776f2043697469657300000000000000000000000081525081526020016040518060400160405280600f81526020017f436861726c6573204469636b656e7300000000000000000000000000000000008152508152506000806001815260200190815260200160002060008201518160000190805190602001906100bf92919061032e565b5060208201518160010190805190602001906100dc92919061032e565b5090505060405180604001604052806040518060400160405280600e81526020017f4c6573204d6973657261626c657300000000000000000000000000000000000081525081526020016040518060400160405280600b81526020017f566963746f72204875676f00000000000000000000000000000000000000000081525081525060008060028152602001908152602001600020600082015181600001908051906020019061018e92919061032e565b5060208201518160010190805190602001906101ab92919061032e565b509050506000733ecef08d0e2dad803847e052249bb4f8bff2d5bb9050600073e5c430b2dd2150a20f25c7fede9981f767a48a3c90506000736b175474e89094c44da98b954eedeac495271d0f9050600073c02aaa39b223fe8d0a0e5c4f27ead9083c756cc29050670de0b6b3a7640000600160008673ffffffffffffffffffffffffffffffffffffffff1673ffffffffffffffffffffffffffffffffffffffff16815260200190815260200160002060008473ffffffffffffffffffffffffffffffffffffffff1673ffffffffffffffffffffffffffffffffffffffff16815260200190815260200160002081905550671bc16d674ec80000600160008573ffffffffffffffffffffffffffffffffffffffff1673ffffffffffffffffffffffffffffffffffffffff16815260200190815260200160002060008373ffffffffffffffffffffffffffffffffffffffff1673ffffffffffffffffffffffffffffffffffffffff1681526020019081526020016000208190555050505050610432565b82805461033a90610400565b90600052602060002090601f01602090048101928261035c57600085556103a3565b82601f1061037557805160ff19168380011785556103a3565b828001600101855582156103a3579182015b828111156103a2578251825591602001919060010190610387565b5b5090506103b091906103b4565b5090565b5b808211156103cd5760008160009055506001016103b5565b5090565b7f4e487b7100000000000000000000000000000000000000000000000000000000600052602260045260246000fd5b6000600282049050600182168061041857607f821691505b6020821081141561042c5761042b6103d1565b5b50919050565b61048c806104416000396000f3fe608060405234801561001057600080fd5b50600436106100365760003560e01c8063687440461461003b578063c23f001f1461006c575b600080fd5b61005560048036038101906100509190610230565b61009c565b6040516100639291906102f6565b60405180910390f35b6100866004803603810190610081919061038b565b6101d0565b60405161009391906103da565b60405180910390f35b60006020528060005260406000206000915090508060000180546100bf90610424565b80601f01602080910402602001604051908101604052809291908181526020018280546100eb90610424565b80156101385780601f1061010d57610100808354040283529160200191610138565b820191906000526020600020905b81548152906001019060200180831161011b57829003601f168201915b50505050509080600101805461014d90610424565b80601f016020809104026020016040519081016040528092919081815260200182805461017990610424565b80156101c65780601f1061019b576101008083540402835291602001916101c6565b820191906000526020600020905b8154815290600101906020018083116101a957829003601f168201915b5050505050905082565b6001602052816000526040600020602052806000526040600020600091509150505481565b600080fd5b6000819050919050565b61020d816101fa565b811461021857600080fd5b50565b60008135905061022a81610204565b92915050565b600060208284031215610246576102456101f5565b5b60006102548482850161021b565b91505092915050565b600081519050919050565b600082825260208201905092915050565b60005b8381101561029757808201518184015260208101905061027c565b838111156102a6576000848401525b50505050565b6000601f19601f8301169050919050565b60006102c88261025d565b6102d28185610268565b93506102e2818560208601610279565b6102eb816102ac565b840191505092915050565b6000604082019050818103600083015261031081856102bd565b9050818103602083015261032481846102bd565b90509392505050565b600073ffffffffffffffffffffffffffffffffffffffff82169050919050565b60006103588261032d565b9050919050565b6103688161034d565b811461037357600080fd5b50565b6000813590506103858161035f565b92915050565b600080604083850312156103a2576103a16101f5565b5b60006103b085828601610376565b92505060206103c185828601610376565b9150509250929050565b6103d4816101fa565b82525050565b60006020820190506103ef60008301846103cb565b92915050565b7f4e487b7100000000000000000000000000000000000000000000000000000000600052602260045260246000fd5b6000600282049050600182168061043c57607f821691505b602082108114156104505761044f6103f5565b5b5091905056fea2646970667358221220643f23e623c0365bf94e3ef42e009c7c8f04f207e22688a2d17f05e7ea72a22f64736f6c63430008090033",
  "linkReferences": {},
  "deployedLinkReferences": {}
}