{
  "_format": "hh-sol-artifact-1",
  "contractName": "Mappings3",
  "sourceName": "contracts/Mappings.sol",
  "abi": [
    {
      "inputs": [
        {
          "internalType": "uint256",
          "name": "_id",
          "type": "uint256"
        }
      ],
      "name": "get",
      "outputs": [
        {
          "internalType": "string",
          "name": "",
          "type": "string"
        }
      ],
      "stateMutability": "view",
      "type": "function"
    },
    {
      "inputs": [
        {
          "internalType": "uint256",
          "name": "",
          "type": "uint256"
        }
      ],
      "name": "myMapping",
      "outputs": [
        {
          "internalType": "string",
          "name": "",
          "type": "string"
        }
      ],
      "stateMutability": "view",
      "type": "function"
    },
    {
      "inputs": [
        {
          "internalType": "uint256",
          "name": "_id",
          "type": "uint256"
        }
      ],
      "name": "remove",
      "outputs": [],
      "stateMutability": "nonpayable",
      "type": "function"
    },
    {
      "inputs": [
        {
          "internalType": "uint256",
          "name": "_id",
          "type": "uint256"
        },
        {
          "internalType": "string",
          "name": "_value",
          "type": "string"
        }
      ],
      "name": "set",
      "outputs": [],
      "stateMutability": "nonpayable",
      "type": "function"
    }
  ],
  "bytecode": "0x608060405234801561001057600080fd5b506106b6806100206000396000f3fe608060405234801561001057600080fd5b506004361061004c5760003560e01c80634cc8221514610051578063643719771461006d5780637c668844146100895780639507d39a146100b9575b600080fd5b61006b600480360381019061006691906103a6565b6100e9565b005b61008760048036038101906100829190610519565b61010a565b005b6100a3600480360381019061009e91906103a6565b610135565b6040516100b091906105fd565b60405180910390f35b6100d360048036038101906100ce91906103a6565b6101d5565b6040516100e091906105fd565b60405180910390f35b60008082815260200190815260200160002060006101079190610279565b50565b8060008084815260200190815260200160002090805190602001906101309291906102b9565b505050565b600060205280600052604060002060009150905080546101549061064e565b80601f01602080910402602001604051908101604052809291908181526020018280546101809061064e565b80156101cd5780601f106101a2576101008083540402835291602001916101cd565b820191906000526020600020905b8154815290600101906020018083116101b057829003601f168201915b505050505081565b606060008083815260200190815260200160002080546101f49061064e565b80601f01602080910402602001604051908101604052809291908181526020018280546102209061064e565b801561026d5780601f106102425761010080835404028352916020019161026d565b820191906000526020600020905b81548152906001019060200180831161025057829003601f168201915b50505050509050919050565b5080546102859061064e565b6000825580601f1061029757506102b6565b601f0160209004906000526020600020908101906102b5919061033f565b5b50565b8280546102c59061064e565b90600052602060002090601f0160209004810192826102e7576000855561032e565b82601f1061030057805160ff191683800117855561032e565b8280016001018555821561032e579182015b8281111561032d578251825591602001919060010190610312565b5b50905061033b919061033f565b5090565b5b80821115610358576000816000905550600101610340565b5090565b6000604051905090565b600080fd5b600080fd5b6000819050919050565b61038381610370565b811461038e57600080fd5b50565b6000813590506103a08161037a565b92915050565b6000602082840312156103bc576103bb610366565b5b60006103ca84828501610391565b91505092915050565b600080fd5b600080fd5b6000601f19601f8301169050919050565b7f4e487b7100000000000000000000000000000000000000000000000000000000600052604160045260246000fd5b610426826103dd565b810181811067ffffffffffffffff82111715610445576104446103ee565b5b80604052505050565b600061045861035c565b9050610464828261041d565b919050565b600067ffffffffffffffff821115610484576104836103ee565b5b61048d826103dd565b9050602081019050919050565b82818337600083830152505050565b60006104bc6104b784610469565b61044e565b9050828152602081018484840111156104d8576104d76103d8565b5b6104e384828561049a565b509392505050565b600082601f830112610500576104ff6103d3565b5b81356105108482602086016104a9565b91505092915050565b600080604083850312156105305761052f610366565b5b600061053e85828601610391565b925050602083013567ffffffffffffffff81111561055f5761055e61036b565b5b61056b858286016104eb565b9150509250929050565b600081519050919050565b600082825260208201905092915050565b60005b838110156105af578082015181840152602081019050610594565b838111156105be576000848401525b50505050565b60006105cf82610575565b6105d98185610580565b93506105e9818560208601610591565b6105f2816103dd565b840191505092915050565b6000602082019050818103600083015261061781846105c4565b905092915050565b7f4e487b7100000000000000000000000000000000000000000000000000000000600052602260045260246000fd5b6000600282049050600182168061066657607f821691505b6020821081141561067a5761067961061f565b5b5091905056fea264697066735822122004580a27cc2ba7b1187a9729a779395ec5a69bea8756867d7165a4c7cadd620f64736f6c63430008090033",
  "linkReferences": {},
  "deployedLinkReferences": {}
}