{
  "_format": "hh-sol-artifact-1",
  "contractName": "Operators2",
  "sourceName": "contracts/Operators.sol",
  "abi": [
    {
      "inputs": [],
      "name": "checkAddress",
      "outputs": [
        {
          "internalType": "bool",
          "name": "",
          "type": "bool"
        }
      ],
      "stateMutability": "pure",
      "type": "function"
    },
    {
      "inputs": [
        {
          "internalType": "uint256",
          "name": "a",
          "type": "uint256"
        },
        {
          "internalType": "uint256",
          "name": "b",
          "type": "uint256"
        }
      ],
      "name": "eq",
      "outputs": [
        {
          "internalType": "bool",
          "name": "",
          "type": "bool"
        }
      ],
      "stateMutability": "pure",
      "type": "function"
    },
    {
      "inputs": [
        {
          "internalType": "uint256",
          "name": "a",
          "type": "uint256"
        },
        {
          "internalType": "uint256",
          "name": "b",
          "type": "uint256"
        }
      ],
      "name": "gt",
      "outputs": [
        {
          "internalType": "bool",
          "name": "",
          "type": "bool"
        }
      ],
      "stateMutability": "pure",
      "type": "function"
    },
    {
      "inputs": [
        {
          "internalType": "uint256",
          "name": "a",
          "type": "uint256"
        },
        {
          "internalType": "uint256",
          "name": "b",
          "type": "uint256"
        }
      ],
      "name": "gtOrEq",
      "outputs": [
        {
          "internalType": "bool",
          "name": "",
          "type": "bool"
        }
      ],
      "stateMutability": "pure",
      "type": "function"
    },
    {
      "inputs": [
        {
          "internalType": "uint256",
          "name": "a",
          "type": "uint256"
        },
        {
          "internalType": "uint256",
          "name": "b",
          "type": "uint256"
        }
      ],
      "name": "lt",
      "outputs": [
        {
          "internalType": "bool",
          "name": "",
          "type": "bool"
        }
      ],
      "stateMutability": "pure",
      "type": "function"
    },
    {
      "inputs": [
        {
          "internalType": "uint256",
          "name": "a",
          "type": "uint256"
        },
        {
          "internalType": "uint256",
          "name": "b",
          "type": "uint256"
        }
      ],
      "name": "ltOrEq",
      "outputs": [
        {
          "internalType": "bool",
          "name": "",
          "type": "bool"
        }
      ],
      "stateMutability": "pure",
      "type": "function"
    },
    {
      "inputs": [
        {
          "internalType": "uint256",
          "name": "a",
          "type": "uint256"
        },
        {
          "internalType": "uint256",
          "name": "b",
          "type": "uint256"
        }
      ],
      "name": "notEq",
      "outputs": [
        {
          "internalType": "bool",
          "name": "",
          "type": "bool"
        }
      ],
      "stateMutability": "pure",
      "type": "function"
    }
  ],
  "bytecode": "0x608060405234801561001057600080fd5b50610361806100206000396000f3fe608060405234801561001057600080fd5b506004361061007d5760003560e01c806332148d731161005b57806332148d73146101005780635f57e1be14610130578063bbf1d46d14610160578063d4f94eb6146101905761007d565b8063118fc88c146100825780631256fa53146100b257806321e5749b146100d0575b600080fd5b61009c600480360381019061009791906102b5565b6101c0565b6040516100a99190610310565b60405180910390f35b6100ba6101cd565b6040516100c79190610310565b60405180910390f35b6100ea60048036038101906100e591906102b5565b610236565b6040516100f79190610310565b60405180910390f35b61011a600480360381019061011591906102b5565b610243565b6040516101279190610310565b60405180910390f35b61014a600480360381019061014591906102b5565b610250565b6040516101579190610310565b60405180910390f35b61017a600480360381019061017591906102b5565b61025e565b6040516101879190610310565b60405180910390f35b6101aa60048036038101906101a591906102b5565b61026c565b6040516101b79190610310565b60405180910390f35b6000818310905092915050565b600080731ad91ee08f21be3de0ba2ba6918e714da6b458369050600073e5c430b2dd2150a20f25c7fede9981f767a48a3c90508073ffffffffffffffffffffffffffffffffffffffff168273ffffffffffffffffffffffffffffffffffffffff16149250505090565b6000818311905092915050565b6000818314905092915050565b600081831415905092915050565b600081831115905092915050565b600081831015905092915050565b600080fd5b6000819050919050565b6102928161027f565b811461029d57600080fd5b50565b6000813590506102af81610289565b92915050565b600080604083850312156102cc576102cb61027a565b5b60006102da858286016102a0565b92505060206102eb858286016102a0565b9150509250929050565b60008115159050919050565b61030a816102f5565b82525050565b60006020820190506103256000830184610301565b9291505056fea264697066735822122055cddcc94b3d334c37a70c506f63527998dd29ad6783084b09c0ef88ab0646e564736f6c63430008090033",
  "linkReferences": {},
  "deployedLinkReferences": {}
}