{
  "_format": "hh-sol-artifact-1",
  "contractName": "Operators1",
  "sourceName": "contracts/Operators.sol",
  "abi": [
    {
      "inputs": [
        {
          "internalType": "uint256",
          "name": "a",
          "type": "uint256"
        },
        {
          "internalType": "uint256",
          "name": "b",
          "type": "uint256"
        }
      ],
      "name": "add",
      "outputs": [
        {
          "internalType": "uint256",
          "name": "",
          "type": "uint256"
        }
      ],
      "stateMutability": "pure",
      "type": "function"
    },
    {
      "inputs": [
        {
          "internalType": "uint256",
          "name": "a",
          "type": "uint256"
        }
      ],
      "name": "decrement",
      "outputs": [
        {
          "internalType": "uint256",
          "name": "",
          "type": "uint256"
        }
      ],
      "stateMutability": "pure",
      "type": "function"
    },
    {
      "inputs": [
        {
          "internalType": "uint256",
          "name": "a",
          "type": "uint256"
        },
        {
          "internalType": "uint256",
          "name": "b",
          "type": "uint256"
        }
      ],
      "name": "div",
      "outputs": [
        {
          "internalType": "uint256",
          "name": "",
          "type": "uint256"
        }
      ],
      "stateMutability": "pure",
      "type": "function"
    },
    {
      "inputs": [
        {
          "internalType": "uint256",
          "name": "a",
          "type": "uint256"
        },
        {
          "internalType": "uint256",
          "name": "b",
          "type": "uint256"
        }
      ],
      "name": "exp",
      "outputs": [
        {
          "internalType": "uint256",
          "name": "",
          "type": "uint256"
        }
      ],
      "stateMutability": "pure",
      "type": "function"
    },
    {
      "inputs": [
        {
          "internalType": "uint256",
          "name": "a",
          "type": "uint256"
        }
      ],
      "name": "increment",
      "outputs": [
        {
          "internalType": "uint256",
          "name": "",
          "type": "uint256"
        }
      ],
      "stateMutability": "pure",
      "type": "function"
    },
    {
      "inputs": [],
      "name": "mathExample",
      "outputs": [
        {
          "internalType": "uint256",
          "name": "",
          "type": "uint256"
        }
      ],
      "stateMutability": "pure",
      "type": "function"
    },
    {
      "inputs": [
        {
          "internalType": "uint256",
          "name": "a",
          "type": "uint256"
        },
        {
          "internalType": "uint256",
          "name": "b",
          "type": "uint256"
        }
      ],
      "name": "mod",
      "outputs": [
        {
          "internalType": "uint256",
          "name": "",
          "type": "uint256"
        }
      ],
      "stateMutability": "pure",
      "type": "function"
    },
    {
      "inputs": [
        {
          "internalType": "uint256",
          "name": "a",
          "type": "uint256"
        },
        {
          "internalType": "uint256",
          "name": "b",
          "type": "uint256"
        }
      ],
      "name": "mul",
      "outputs": [
        {
          "internalType": "uint256",
          "name": "",
          "type": "uint256"
        }
      ],
      "stateMutability": "pure",
      "type": "function"
    },
    {
      "inputs": [
        {
          "internalType": "uint256",
          "name": "a",
          "type": "uint256"
        },
        {
          "internalType": "uint256",
          "name": "b",
          "type": "uint256"
        }
      ],
      "name": "sub",
      "outputs": [
        {
          "internalType": "uint256",
          "name": "",
          "type": "uint256"
        }
      ],
      "stateMutability": "pure",
      "type": "function"
    }
  ],
  "bytecode": "0x608060405234801561001057600080fd5b50610850806100206000396000f3fe608060405234801561001057600080fd5b50600436106100935760003560e01c8063b67d77c511610066578063b67d77c514610158578063bd9d485514610188578063c8a4ac9c146101a6578063f43f523a146101d6578063f5f565f81461020657610093565b80633a9ebefd14610098578063771602f7146100c85780637cf5dab0146100f8578063a391c15b14610128575b600080fd5b6100b260048036038101906100ad9190610396565b610236565b6040516100bf91906103d2565b60405180910390f35b6100e260048036038101906100dd91906103ed565b61024e565b6040516100ef91906103d2565b60405180910390f35b610112600480360381019061010d9190610396565b610264565b60405161011f91906103d2565b60405180910390f35b610142600480360381019061013d91906103ed565b61027c565b60405161014f91906103d2565b60405180910390f35b610172600480360381019061016d91906103ed565b610292565b60405161017f91906103d2565b60405180910390f35b6101906102a8565b60405161019d91906103d2565b60405180910390f35b6101c060048036038101906101bb91906103ed565b610319565b6040516101cd91906103d2565b60405180910390f35b6101f060048036038101906101eb91906103ed565b61032f565b6040516101fd91906103d2565b60405180910390f35b610220600480360381019061021b91906103ed565b610345565b60405161022d91906103d2565b60405180910390f35b600081806102439061045c565b925050819050919050565b6000818361025c9190610486565b905092915050565b60008180610271906104dc565b925050819050919050565b6000818361028a9190610554565b905092915050565b600081836102a09190610585565b905092915050565b6000806001816102b89190610486565b905080806102c5906104dc565b9150506002816102d591906105b9565b90506002816102e49190610753565b90506002816102f39190610554565b90506001816103029190610585565b9050808061030f9061045c565b9150508091505090565b6000818361032791906105b9565b905092915050565b6000818361033d919061079e565b905092915050565b6000818361035391906107cf565b905092915050565b600080fd5b6000819050919050565b61037381610360565b811461037e57600080fd5b50565b6000813590506103908161036a565b92915050565b6000602082840312156103ac576103ab61035b565b5b60006103ba84828501610381565b91505092915050565b6103cc81610360565b82525050565b60006020820190506103e760008301846103c3565b92915050565b600080604083850312156104045761040361035b565b5b600061041285828601610381565b925050602061042385828601610381565b9150509250929050565b7f4e487b7100000000000000000000000000000000000000000000000000000000600052601160045260246000fd5b600061046782610360565b9150600082141561047b5761047a61042d565b5b600182039050919050565b600061049182610360565b915061049c83610360565b9250827fffffffffffffffffffffffffffffffffffffffffffffffffffffffffffffffff038211156104d1576104d061042d565b5b828201905092915050565b60006104e782610360565b91507fffffffffffffffffffffffffffffffffffffffffffffffffffffffffffffffff82141561051a5761051961042d565b5b600182019050919050565b7f4e487b7100000000000000000000000000000000000000000000000000000000600052601260045260246000fd5b600061055f82610360565b915061056a83610360565b92508261057a57610579610525565b5b828204905092915050565b600061059082610360565b915061059b83610360565b9250828210156105ae576105ad61042d565b5b828203905092915050565b60006105c482610360565b91506105cf83610360565b9250817fffffffffffffffffffffffffffffffffffffffffffffffffffffffffffffffff04831182151516156106085761060761042d565b5b828202905092915050565b60008160011c9050919050565b6000808291508390505b600185111561066a578086048111156106465761064561042d565b5b60018516156106555780820291505b808102905061066385610613565b945061062a565b94509492505050565b600082610683576001905061073f565b81610691576000905061073f565b81600181146106a757600281146106b1576106e0565b600191505061073f565b60ff8411156106c3576106c261042d565b5b8360020a9150848211156106da576106d961042d565b5b5061073f565b5060208310610133831016604e8410600b84101617156107155782820a9050838111156107105761070f61042d565b5b61073f565b6107228484846001610620565b925090508184048111156107395761073861042d565b5b81810290505b9392505050565b600060ff82169050919050565b600061075e82610360565b915061076983610746565b92506107967fffffffffffffffffffffffffffffffffffffffffffffffffffffffffffffffff8484610673565b905092915050565b60006107a982610360565b91506107b483610360565b9250826107c4576107c3610525565b5b828206905092915050565b60006107da82610360565b91506107e583610360565b92506108127fffffffffffffffffffffffffffffffffffffffffffffffffffffffffffffffff8484610673565b90509291505056fea26469706673582212203a992df3f026f16577b52ac9ad6606e4e1c0a07ed9328cd3228b4ab9e5485dbe64736f6c63430008090033",
  "linkReferences": {},
  "deployedLinkReferences": {}
}