{
  "_format": "hh-sol-artifact-1",
  "contractName": "Operators3",
  "sourceName": "contracts/Operators.sol",
  "abi": [
    {
      "inputs": [
        {
          "internalType": "bool",
          "name": "a",
          "type": "bool"
        },
        {
          "internalType": "bool",
          "name": "b",
          "type": "bool"
        }
      ],
      "name": "and",
      "outputs": [
        {
          "internalType": "bool",
          "name": "",
          "type": "bool"
        }
      ],
      "stateMutability": "pure",
      "type": "function"
    },
    {
      "inputs": [],
      "name": "comparisonExample",
      "outputs": [
        {
          "internalType": "bool",
          "name": "",
          "type": "bool"
        }
      ],
      "stateMutability": "pure",
      "type": "function"
    },
    {
      "inputs": [
        {
          "internalType": "bool",
          "name": "a",
          "type": "bool"
        }
      ],
      "name": "not",
      "outputs": [
        {
          "internalType": "bool",
          "name": "",
          "type": "bool"
        }
      ],
      "stateMutability": "pure",
      "type": "function"
    },
    {
      "inputs": [
        {
          "internalType": "bool",
          "name": "a",
          "type": "bool"
        },
        {
          "internalType": "bool",
          "name": "b",
          "type": "bool"
        }
      ],
      "name": "or",
      "outputs": [
        {
          "internalType": "bool",
          "name": "",
          "type": "bool"
        }
      ],
      "stateMutability": "pure",
      "type": "function"
    }
  ],
  "bytecode": "0x608060405234801561001057600080fd5b50610252806100206000396000f3fe608060405234801561001057600080fd5b506004361061004c5760003560e01c80637bedf9c4146100515780639f6ee0fc1461006f578063b0ad3a5f1461009f578063f1f3da0e146100cf575b600080fd5b6100596100ff565b6040516100669190610163565b60405180910390f35b610089600480360381019061008491906101af565b610116565b6040516100969190610163565b60405180910390f35b6100b960048036038101906100b491906101ef565b61012a565b6040516100c69190610163565b60405180910390f35b6100e960048036038101906100e491906101af565b610135565b6040516100f69190610163565b60405180910390f35b60006002801480156101115750600480145b905090565b60008280156101225750815b905092915050565b600081159050919050565b600082806101405750815b905092915050565b60008115159050919050565b61015d81610148565b82525050565b60006020820190506101786000830184610154565b92915050565b600080fd5b61018c81610148565b811461019757600080fd5b50565b6000813590506101a981610183565b92915050565b600080604083850312156101c6576101c561017e565b5b60006101d48582860161019a565b92505060206101e58582860161019a565b9150509250929050565b6000602082840312156102055761020461017e565b5b60006102138482850161019a565b9150509291505056fea26469706673582212208160734ef4106b9bc82aedc48bf4d14f7aed07976fbc4c5ab3afe14c1b4d38dc64736f6c63430008090033",
  "linkReferences": {},
  "deployedLinkReferences": {}
}