{
  "_format": "hh-sol-artifact-1",
  "contractName": "Arrays2",
  "sourceName": "contracts/Arrays.sol",
  "abi": [
    {
      "inputs": [
        {
          "internalType": "uint256",
          "name": "",
          "type": "uint256"
        }
      ],
      "name": "array",
      "outputs": [
        {
          "internalType": "uint256",
          "name": "",
          "type": "uint256"
        }
      ],
      "stateMutability": "view",
      "type": "function"
    },
    {
      "inputs": [
        {
          "internalType": "uint256",
          "name": "i",
          "type": "uint256"
        }
      ],
      "name": "get",
      "outputs": [
        {
          "internalType": "uint256",
          "name": "",
          "type": "uint256"
        }
      ],
      "stateMutability": "view",
      "type": "function"
    },
    {
      "inputs": [],
      "name": "getArray",
      "outputs": [
        {
          "internalType": "uint256[]",
          "name": "",
          "type": "uint256[]"
        }
      ],
      "stateMutability": "view",
      "type": "function"
    },
    {
      "inputs": [],
      "name": "length",
      "outputs": [
        {
          "internalType": "uint256",
          "name": "",
          "type": "uint256"
        }
      ],
      "stateMutability": "view",
      "type": "function"
    },
    {
      "inputs": [],
      "name": "pop",
      "outputs": [],
      "stateMutability": "nonpayable",
      "type": "function"
    },
    {
      "inputs": [
        {
          "internalType": "uint256",
          "name": "i",
          "type": "uint256"
        }
      ],
      "name": "push",
      "outputs": [],
      "stateMutability": "nonpayable",
      "type": "function"
    },
    {
      "inputs": [
        {
          "internalType": "uint256",
          "name": "index",
          "type": "uint256"
        }
      ],
      "name": "remove",
      "outputs": [],
      "stateMutability": "nonpayable",
      "type": "function"
    }
  ],
  "bytecode": "0x608060405234801561001057600080fd5b50610490806100206000396000f3fe608060405234801561001057600080fd5b506004361061007d5760003560e01c80639507d39a1161005b5780639507d39a146100ec578063959ac4841461011c578063a4ece52c14610138578063d504ea1d146101425761007d565b80631f7b6d321461008257806338d94193146100a05780634cc82215146100d0575b600080fd5b61008a610160565b60405161009791906102a3565b60405180910390f35b6100ba60048036038101906100b591906102ef565b61016c565b6040516100c791906102a3565b60405180910390f35b6100ea60048036038101906100e591906102ef565b610190565b005b610106600480360381019061010191906102ef565b6101b5565b60405161011391906102a3565b60405180910390f35b610136600480360381019061013191906102ef565b6101dc565b005b610140610208565b005b61014a610232565b60405161015791906103da565b60405180910390f35b60008080549050905090565b6000818154811061017c57600080fd5b906000526020600020016000915090505481565b600081815481106101a4576101a36103fc565b5b906000526020600020016000905550565b60008082815481106101ca576101c96103fc565b5b90600052602060002001549050919050565b600081908060018154018082558091505060019003906000526020600020016000909190919091505550565b600080548061021a5761021961042b565b5b60019003818190600052602060002001600090559055565b6060600080548060200260200160405190810160405280929190818152602001828054801561028057602002820191906000526020600020905b81548152602001906001019080831161026c575b5050505050905090565b6000819050919050565b61029d8161028a565b82525050565b60006020820190506102b86000830184610294565b92915050565b600080fd5b6102cc8161028a565b81146102d757600080fd5b50565b6000813590506102e9816102c3565b92915050565b600060208284031215610305576103046102be565b5b6000610313848285016102da565b91505092915050565b600081519050919050565b600082825260208201905092915050565b6000819050602082019050919050565b6103518161028a565b82525050565b60006103638383610348565b60208301905092915050565b6000602082019050919050565b60006103878261031c565b6103918185610327565b935061039c83610338565b8060005b838110156103cd5781516103b48882610357565b97506103bf8361036f565b9250506001810190506103a0565b5085935050505092915050565b600060208201905081810360008301526103f4818461037c565b905092915050565b7f4e487b7100000000000000000000000000000000000000000000000000000000600052603260045260246000fd5b7f4e487b7100000000000000000000000000000000000000000000000000000000600052603160045260246000fdfea2646970667358221220bfe17e0a425fd01fdb64ba0c73a7dddd77bd2c250d5d63cbafa6abf3adb2d16b64736f6c63430008090033",
  "linkReferences": {},
  "deployedLinkReferences": {}
}