{
  "_format": "hh-sol-artifact-1",
  "contractName": "Arrays1",
  "sourceName": "contracts/Arrays.sol",
  "abi": [
    {
      "inputs": [
        {
          "internalType": "uint256",
          "name": "",
          "type": "uint256"
        }
      ],
      "name": "array1",
      "outputs": [
        {
          "internalType": "uint256",
          "name": "",
          "type": "uint256"
        }
      ],
      "stateMutability": "view",
      "type": "function"
    },
    {
      "inputs": [
        {
          "internalType": "uint256",
          "name": "",
          "type": "uint256"
        }
      ],
      "name": "array2",
      "outputs": [
        {
          "internalType": "uint256",
          "name": "",
          "type": "uint256"
        }
      ],
      "stateMutability": "view",
      "type": "function"
    },
    {
      "inputs": [
        {
          "internalType": "uint256",
          "name": "",
          "type": "uint256"
        }
      ],
      "name": "array3",
      "outputs": [
        {
          "internalType": "uint256",
          "name": "",
          "type": "uint256"
        }
      ],
      "stateMutability": "view",
      "type": "function"
    },
    {
      "inputs": [
        {
          "internalType": "uint256",
          "name": "",
          "type": "uint256"
        }
      ],
      "name": "array4",
      "outputs": [
        {
          "internalType": "string",
          "name": "",
          "type": "string"
        }
      ],
      "stateMutability": "view",
      "type": "function"
    },
    {
      "inputs": [
        {
          "internalType": "uint256",
          "name": "",
          "type": "uint256"
        }
      ],
      "name": "array5",
      "outputs": [
        {
          "internalType": "string",
          "name": "",
          "type": "string"
        }
      ],
      "stateMutability": "view",
      "type": "function"
    },
    {
      "inputs": [
        {
          "internalType": "uint256",
          "name": "",
          "type": "uint256"
        }
      ],
      "name": "array6",
      "outputs": [
        {
          "internalType": "string",
          "name": "",
          "type": "string"
        }
      ],
      "stateMutability": "view",
      "type": "function"
    }
  ],
  "bytecode": "0x60806040526040518060600160405280600160ff168152602001600260ff168152602001600360ff1681525060009060036200003d9291906200011f565b5060405180606001604052806040518060400160405280600581526020017f6170706c6500000000000000000000000000000000000000000000000000000081525081526020016040518060400160405280600681526020017f62616e616e61000000000000000000000000000000000000000000000000000081525081526020016040518060400160405280600681526020017f636172726f740000000000000000000000000000000000000000000000000000815250815250600c9060036200010a92919062000176565b503480156200011857600080fd5b5062000360565b82805482825590600052602060002090810192821562000163579160200282015b8281111562000162578251829060ff1690559160200191906001019062000140565b5b509050620001729190620001dd565b5090565b828054828255906000526020600020908101928215620001ca579160200282015b82811115620001c9578251829080519060200190620001b8929190620001fc565b509160200191906001019062000197565b5b509050620001d991906200028d565b5090565b5b80821115620001f8576000816000905550600101620001de565b5090565b8280546200020a906200032a565b90600052602060002090601f0160209004810192826200022e57600085556200027a565b82601f106200024957805160ff19168380011785556200027a565b828001600101855582156200027a579182015b82811115620002795782518255916020019190600101906200025c565b5b509050620002899190620001dd565b5090565b5b80821115620002b15760008181620002a79190620002b5565b506001016200028e565b5090565b508054620002c3906200032a565b6000825580601f10620002d75750620002f8565b601f016020900490600052602060002090810190620002f79190620001dd565b5b50565b7f4e487b7100000000000000000000000000000000000000000000000000000000600052602260045260246000fd5b600060028204905060018216806200034357607f821691505b602082108114156200035a5762000359620002fb565b5b50919050565b6105c980620003706000396000f3fe608060405234801561001057600080fd5b50600436106100625760003560e01c80634bae89cb14610067578063583d26e51461009757806361125b63146100c7578063708cb80a146100f7578063880d5e6f14610127578063cbdef3f914610157575b600080fd5b610081600480360381019061007c9190610420565b610187565b60405161008e919061045c565b60405180910390f35b6100b160048036038101906100ac9190610420565b6101ab565b6040516100be9190610510565b60405180910390f35b6100e160048036038101906100dc9190610420565b610257565b6040516100ee919061045c565b60405180910390f35b610111600480360381019061010c9190610420565b61027b565b60405161011e919061045c565b60405180910390f35b610141600480360381019061013c9190610420565b610296565b60405161014e9190610510565b60405180910390f35b610171600480360381019061016c9190610420565b610339565b60405161017e9190610510565b60405180910390f35b6000818154811061019757600080fd5b906000526020600020016000915090505481565b600d81815481106101bb57600080fd5b9060005260206000200160009150905080546101d690610561565b80601f016020809104026020016040519081016040528092919081815260200182805461020290610561565b801561024f5780601f106102245761010080835404028352916020019161024f565b820191906000526020600020905b81548152906001019060200180831161023257829003601f168201915b505050505081565b6001818154811061026757600080fd5b906000526020600020016000915090505481565b600281600a811061028b57600080fd5b016000915090505481565b600e81600a81106102a657600080fd5b0160009150905080546102b890610561565b80601f01602080910402602001604051908101604052809291908181526020018280546102e490610561565b80156103315780601f1061030657610100808354040283529160200191610331565b820191906000526020600020905b81548152906001019060200180831161031457829003601f168201915b505050505081565b600c818154811061034957600080fd5b90600052602060002001600091509050805461036490610561565b80601f016020809104026020016040519081016040528092919081815260200182805461039090610561565b80156103dd5780601f106103b2576101008083540402835291602001916103dd565b820191906000526020600020905b8154815290600101906020018083116103c057829003601f168201915b505050505081565b600080fd5b6000819050919050565b6103fd816103ea565b811461040857600080fd5b50565b60008135905061041a816103f4565b92915050565b600060208284031215610436576104356103e5565b5b60006104448482850161040b565b91505092915050565b610456816103ea565b82525050565b6000602082019050610471600083018461044d565b92915050565b600081519050919050565b600082825260208201905092915050565b60005b838110156104b1578082015181840152602081019050610496565b838111156104c0576000848401525b50505050565b6000601f19601f8301169050919050565b60006104e282610477565b6104ec8185610482565b93506104fc818560208601610493565b610505816104c6565b840191505092915050565b6000602082019050818103600083015261052a81846104d7565b905092915050565b7f4e487b7100000000000000000000000000000000000000000000000000000000600052602260045260246000fd5b6000600282049050600182168061057957607f821691505b6020821081141561058d5761058c610532565b5b5091905056fea2646970667358221220f149d41ecc0b72ec1b366e07b2136ca2a11a232bbf79732ee2c07a519b73bc0764736f6c63430008090033",
  "linkReferences": {},
  "deployedLinkReferences": {}
}