{
  "_format": "hh-sol-artifact-1",
  "contractName": "Interactions1",
  "sourceName": "contracts/Interactions.sol",
  "abi": [
    {
      "inputs": [
        {
          "internalType": "contract SecretVault",
          "name": "_secretVault",
          "type": "address"
        }
      ],
      "stateMutability": "nonpayable",
      "type": "constructor"
    },
    {
      "inputs": [],
      "name": "getSecret",
      "outputs": [
        {
          "internalType": "string",
          "name": "",
          "type": "string"
        }
      ],
      "stateMutability": "view",
      "type": "function"
    },
    {
      "inputs": [],
      "name": "secretVault",
      "outputs": [
        {
          "internalType": "contract SecretVault",
          "name": "",
          "type": "address"
        }
      ],
      "stateMutability": "view",
      "type": "function"
    },
    {
      "inputs": [
        {
          "internalType": "string",
          "name": "_secret",
          "type": "string"
        }
      ],
      "name": "setSecret",
      "outputs": [],
      "stateMutability": "nonpayable",
      "type": "function"
    }
  ],
  "bytecode": "0x608060405234801561001057600080fd5b506040516106f93803806106f9833981810160405281019061003291906100ed565b806000806101000a81548173ffffffffffffffffffffffffffffffffffffffff021916908373ffffffffffffffffffffffffffffffffffffffff1602179055505061011a565b600080fd5b600073ffffffffffffffffffffffffffffffffffffffff82169050919050565b60006100a88261007d565b9050919050565b60006100ba8261009d565b9050919050565b6100ca816100af565b81146100d557600080fd5b50565b6000815190506100e7816100c1565b92915050565b60006020828403121561010357610102610078565b5b6000610111848285016100d8565b91505092915050565b6105d0806101296000396000f3fe608060405234801561001057600080fd5b50600436106100415760003560e01c80634393a6ef146100465780635b9fdc30146100645780637ed6c92614610082575b600080fd5b61004e61009e565b60405161005b9190610279565b60405180910390f35b61006c6100c2565b604051610079919061032d565b60405180910390f35b61009c60048036038101906100979190610498565b61016c565b005b60008054906101000a900473ffffffffffffffffffffffffffffffffffffffff1681565b606060008054906101000a900473ffffffffffffffffffffffffffffffffffffffff1673ffffffffffffffffffffffffffffffffffffffff16635b9fdc306040518163ffffffff1660e01b815260040160006040518083038186803b15801561012a57600080fd5b505afa15801561013e573d6000803e3d6000fd5b505050506040513d6000823e3d601f19601f820116820180604052508101906101679190610551565b905090565b60008054906101000a900473ffffffffffffffffffffffffffffffffffffffff1673ffffffffffffffffffffffffffffffffffffffff16637ed6c926826040518263ffffffff1660e01b81526004016101c5919061032d565b600060405180830381600087803b1580156101df57600080fd5b505af11580156101f3573d6000803e3d6000fd5b5050505050565b600073ffffffffffffffffffffffffffffffffffffffff82169050919050565b6000819050919050565b600061023f61023a610235846101fa565b61021a565b6101fa565b9050919050565b600061025182610224565b9050919050565b600061026382610246565b9050919050565b61027381610258565b82525050565b600060208201905061028e600083018461026a565b92915050565b600081519050919050565b600082825260208201905092915050565b60005b838110156102ce5780820151818401526020810190506102b3565b838111156102dd576000848401525b50505050565b6000601f19601f8301169050919050565b60006102ff82610294565b610309818561029f565b93506103198185602086016102b0565b610322816102e3565b840191505092915050565b6000602082019050818103600083015261034781846102f4565b905092915050565b6000604051905090565b600080fd5b600080fd5b600080fd5b600080fd5b7f4e487b7100000000000000000000000000000000000000000000000000000000600052604160045260246000fd5b6103a5826102e3565b810181811067ffffffffffffffff821117156103c4576103c361036d565b5b80604052505050565b60006103d761034f565b90506103e3828261039c565b919050565b600067ffffffffffffffff8211156104035761040261036d565b5b61040c826102e3565b9050602081019050919050565b82818337600083830152505050565b600061043b610436846103e8565b6103cd565b90508281526020810184848401111561045757610456610368565b5b610462848285610419565b509392505050565b600082601f83011261047f5761047e610363565b5b813561048f848260208601610428565b91505092915050565b6000602082840312156104ae576104ad610359565b5b600082013567ffffffffffffffff8111156104cc576104cb61035e565b5b6104d88482850161046a565b91505092915050565b60006104f46104ef846103e8565b6103cd565b9050828152602081018484840111156105105761050f610368565b5b61051b8482856102b0565b509392505050565b600082601f83011261053857610537610363565b5b81516105488482602086016104e1565b91505092915050565b60006020828403121561056757610566610359565b5b600082015167ffffffffffffffff8111156105855761058461035e565b5b61059184828501610523565b9150509291505056fea2646970667358221220ea8ba77d90f34c506af4d2db006fc34a51c0d77e303483f7d93621cbeb966e3464736f6c63430008090033",
  "linkReferences": {},
  "deployedLinkReferences": {}
}