{
  "_format": "hh-sol-artifact-1",
  "contractName": "Interactions2",
  "sourceName": "contracts/Interactions.sol",
  "abi": [
    {
      "inputs": [
        {
          "internalType": "address",
          "name": "_tokenAddress",
          "type": "address"
        },
        {
          "internalType": "uint256",
          "name": "_amount",
          "type": "uint256"
        }
      ],
      "name": "deposit",
      "outputs": [],
      "stateMutability": "nonpayable",
      "type": "function"
    }
  ],
  "bytecode": "0x608060405234801561001057600080fd5b506102a9806100206000396000f3fe608060405234801561001057600080fd5b506004361061002b5760003560e01c806347e7ef2414610030575b600080fd5b61004a60048036038101906100459190610179565b61004c565b005b8173ffffffffffffffffffffffffffffffffffffffff166323b872dd3330846040518463ffffffff1660e01b8152600401610089939291906101d7565b602060405180830381600087803b1580156100a357600080fd5b505af11580156100b7573d6000803e3d6000fd5b505050506040513d601f19601f820116820180604052508101906100db9190610246565b505050565b600080fd5b600073ffffffffffffffffffffffffffffffffffffffff82169050919050565b6000610110826100e5565b9050919050565b61012081610105565b811461012b57600080fd5b50565b60008135905061013d81610117565b92915050565b6000819050919050565b61015681610143565b811461016157600080fd5b50565b6000813590506101738161014d565b92915050565b600080604083850312156101905761018f6100e0565b5b600061019e8582860161012e565b92505060206101af85828601610164565b9150509250929050565b6101c281610105565b82525050565b6101d181610143565b82525050565b60006060820190506101ec60008301866101b9565b6101f960208301856101b9565b61020660408301846101c8565b949350505050565b60008115159050919050565b6102238161020e565b811461022e57600080fd5b50565b6000815190506102408161021a565b92915050565b60006020828403121561025c5761025b6100e0565b5b600061026a84828501610231565b9150509291505056fea2646970667358221220a47bac61469cf73f001fe704abd89605f2d9413de80db036dd542046a3f430cd64736f6c63430008090033",
  "linkReferences": {},
  "deployedLinkReferences": {}
}