{
  "_format": "hh-sol-artifact-1",
  "contractName": "Functions7",
  "sourceName": "contracts/Functions.sol",
  "abi": [
    {
      "anonymous": false,
      "inputs": [
        {
          "indexed": false,
          "internalType": "string",
          "name": "name",
          "type": "string"
        }
      ],
      "name": "NameChanged",
      "type": "event"
    },
    {
      "inputs": [],
      "name": "getName1",
      "outputs": [
        {
          "internalType": "string",
          "name": "",
          "type": "string"
        }
      ],
      "stateMutability": "view",
      "type": "function"
    },
    {
      "inputs": [],
      "name": "getName2",
      "outputs": [
        {
          "internalType": "string",
          "name": "",
          "type": "string"
        }
      ],
      "stateMutability": "view",
      "type": "function"
    },
    {
      "inputs": [],
      "name": "getName3",
      "outputs": [
        {
          "internalType": "string",
          "name": "",
          "type": "string"
        }
      ],
      "stateMutability": "view",
      "type": "function"
    },
    {
      "inputs": [],
      "name": "getName4",
      "outputs": [
        {
          "internalType": "string",
          "name": "anotherName",
          "type": "string"
        }
      ],
      "stateMutability": "view",
      "type": "function"
    },
    {
      "inputs": [],
      "name": "getName5",
      "outputs": [
        {
          "internalType": "string",
          "name": "anotherName",
          "type": "string"
        }
      ],
      "stateMutability": "view",
      "type": "function"
    },
    {
      "inputs": [],
      "name": "getName6",
      "outputs": [
        {
          "internalType": "string",
          "name": "name1",
          "type": "string"
        },
        {
          "internalType": "string",
          "name": "name2",
          "type": "string"
        }
      ],
      "stateMutability": "view",
      "type": "function"
    },
    {
      "inputs": [],
      "name": "getName7",
      "outputs": [
        {
          "internalType": "string",
          "name": "name1",
          "type": "string"
        },
        {
          "internalType": "string",
          "name": "name2",
          "type": "string"
        }
      ],
      "stateMutability": "view",
      "type": "function"
    },
    {
      "inputs": [],
      "name": "setName1",
      "outputs": [
        {
          "internalType": "string",
          "name": "",
          "type": "string"
        }
      ],
      "stateMutability": "nonpayable",
      "type": "function"
    },
    {
      "inputs": [],
      "name": "setName2",
      "outputs": [
        {
          "internalType": "string",
          "name": "newName",
          "type": "string"
        }
      ],
      "stateMutability": "nonpayable",
      "type": "function"
    },
    {
      "inputs": [],
      "name": "setName3",
      "outputs": [
        {
          "internalType": "string",
          "name": "newName",
          "type": "string"
        }
      ],
      "stateMutability": "nonpayable",
      "type": "function"
    }
  ],
  "bytecode": "0x60806040526040518060400160405280600981526020017f4578616d706c65203700000000000000000000000000000000000000000000008152506000908051906020019061004f929190610062565b5034801561005c57600080fd5b50610166565b82805461006e90610134565b90600052602060002090601f01602090048101928261009057600085556100d7565b82601f106100a957805160ff19168380011785556100d7565b828001600101855582156100d7579182015b828111156100d65782518255916020019190600101906100bb565b5b5090506100e491906100e8565b5090565b5b808211156101015760008160009055506001016100e9565b5090565b7f4e487b7100000000000000000000000000000000000000000000000000000000600052602260045260246000fd5b6000600282049050600182168061014c57607f821691505b602082108114156101605761015f610105565b5b50919050565b6108c9806101756000396000f3fe608060405234801561001057600080fd5b506004361061009e5760003560e01c806358f4083d1161006657806358f4083d1461013b57806381516a98146101595780638919a20f14610177578063a2a20cf514610195578063d38a489e146101b35761009e565b80631fbd5ec2146100a35780634a957857146100c15780634a96fc96146100df5780634b5683ef146100fe578063580c0ded1461011c575b600080fd5b6100ab6101d1565b6040516100b89190610722565b60405180910390f35b6100c9610263565b6040516100d69190610722565b60405180910390f35b6100e7610379565b6040516100f5929190610744565b60405180910390f35b610106610390565b6040516101139190610722565b60405180910390f35b610124610471565b604051610132929190610744565b60405180910390f35b610143610540565b6040516101509190610722565b60405180910390f35b61016161057d565b60405161016e9190610722565b60405180910390f35b61017f6105c3565b60405161018c9190610722565b60405180910390f35b61019d6105c8565b6040516101aa9190610722565b60405180910390f35b6101bb6105d7565b6040516101c89190610722565b60405180910390f35b6060600080546101e0906107aa565b80601f016020809104026020016040519081016040528092919081815260200182805461020c906107aa565b80156102595780601f1061022e57610100808354040283529160200191610259565b820191906000526020600020905b81548152906001019060200180831161023c57829003601f168201915b5050505050905090565b60606040518060400160405280600881526020017f4e6577206e616d65000000000000000000000000000000000000000000000000815250600090805190602001906102b09291906105e6565b507f4737457377f528cc8afd815f73ecb8b05df80d047dbffc41c17750a4033592bc60006040516102e19190610871565b60405180910390a1600080546102f6906107aa565b80601f0160208091040260200160405190810160405280929190818152602001828054610322906107aa565b801561036f5780601f106103445761010080835404028352916020019161036f565b820191906000526020600020905b81548152906001019060200180831161035257829003601f168201915b5050505050905090565b606080610384610471565b80925081935050509091565b60606040518060400160405280600881526020017f4e6577206e616d65000000000000000000000000000000000000000000000000815250905080600090805190602001906103e09291906105e6565b50600080546103ee906107aa565b80601f016020809104026020016040519081016040528092919081815260200182805461041a906107aa565b80156104675780601f1061043c57610100808354040283529160200191610467565b820191906000526020600020905b81548152906001019060200180831161044a57829003601f168201915b5050505050905090565b6060806000808054610482906107aa565b80601f01602080910402602001604051908101604052809291908181526020018280546104ae906107aa565b80156104fb5780601f106104d0576101008083540402835291602001916104fb565b820191906000526020600020905b8154815290600101906020018083116104de57829003601f168201915b505050505090506040518060400160405280600881526020017f4e6577206e616d65000000000000000000000000000000000000000000000000815250915091509091565b60606040518060400160405280600c81526020017f416e6f74686572206e616d650000000000000000000000000000000000000000815250905090565b6060610587610390565b90507f4737457377f528cc8afd815f73ecb8b05df80d047dbffc41c17750a4033592bc816040516105b89190610722565b60405180910390a190565b606090565b60606105d26101d1565b905090565b60606105e1610540565b905090565b8280546105f2906107aa565b90600052602060002090601f016020900481019282610614576000855561065b565b82601f1061062d57805160ff191683800117855561065b565b8280016001018555821561065b579182015b8281111561065a57825182559160200191906001019061063f565b5b509050610668919061066c565b5090565b5b8082111561068557600081600090555060010161066d565b5090565b600081519050919050565b600082825260208201905092915050565b60005b838110156106c35780820151818401526020810190506106a8565b838111156106d2576000848401525b50505050565b6000601f19601f8301169050919050565b60006106f482610689565b6106fe8185610694565b935061070e8185602086016106a5565b610717816106d8565b840191505092915050565b6000602082019050818103600083015261073c81846106e9565b905092915050565b6000604082019050818103600083015261075e81856106e9565b9050818103602083015261077281846106e9565b90509392505050565b7f4e487b7100000000000000000000000000000000000000000000000000000000600052602260045260246000fd5b600060028204905060018216806107c257607f821691505b602082108114156107d6576107d561077b565b5b50919050565b60008190508160005260206000209050919050565b600081546107fe816107aa565b6108088186610694565b94506001821660008114610823576001811461083557610868565b60ff1983168652602086019350610868565b61083e856107dc565b60005b8381101561086057815481890152600182019150602081019050610841565b808801955050505b50505092915050565b6000602082019050818103600083015261088b81846107f1565b90509291505056fea2646970667358221220d2789edac25d9e3384ad5a5c61ca4723774f822e3a29d158f3c9410539c6147764736f6c63430008090033",
  "linkReferences": {},
  "deployedLinkReferences": {}
}