{
  "_format": "hh-sol-artifact-1",
  "contractName": "Functions6",
  "sourceName": "contracts/Functions.sol",
  "abi": [
    {
      "inputs": [],
      "stateMutability": "nonpayable",
      "type": "constructor"
    },
    {
      "inputs": [],
      "name": "name",
      "outputs": [
        {
          "internalType": "string",
          "name": "",
          "type": "string"
        }
      ],
      "stateMutability": "view",
      "type": "function"
    },
    {
      "inputs": [
        {
          "internalType": "string",
          "name": "_name",
          "type": "string"
        }
      ],
      "name": "setName1",
      "outputs": [],
      "stateMutability": "nonpayable",
      "type": "function"
    },
    {
      "inputs": [
        {
          "internalType": "string",
          "name": "_name",
          "type": "string"
        }
      ],
      "name": "setName2",
      "outputs": [],
      "stateMutability": "nonpayable",
      "type": "function"
    }
  ],
  "bytecode": "0x60806040526040518060200160405280600081525060019080519060200190610029929190610097565b506000600260006101000a81548160ff02191690831515021790555034801561005157600080fd5b50336000806101000a81548173ffffffffffffffffffffffffffffffffffffffff021916908373ffffffffffffffffffffffffffffffffffffffff16021790555061019b565b8280546100a390610169565b90600052602060002090601f0160209004810192826100c5576000855561010c565b82601f106100de57805160ff191683800117855561010c565b8280016001018555821561010c579182015b8281111561010b5782518255916020019190600101906100f0565b5b509050610119919061011d565b5090565b5b8082111561013657600081600090555060010161011e565b5090565b7f4e487b7100000000000000000000000000000000000000000000000000000000600052602260045260246000fd5b6000600282049050600182168061018157607f821691505b602082108114156101955761019461013a565b5b50919050565b61074a806101aa6000396000f3fe608060405234801561001057600080fd5b50600436106100415760003560e01c806306fdde03146100465780634a5458bb14610064578063a401291314610080575b600080fd5b61004e61009c565b60405161005b9190610427565b60405180910390f35b61007e60048036038101906100799190610592565b61012a565b005b61009a60048036038101906100959190610592565b6101d2565b005b600180546100a99061060a565b80601f01602080910402602001604051908101604052809291908181526020018280546100d59061060a565b80156101225780601f106100f757610100808354040283529160200191610122565b820191906000526020600020905b81548152906001019060200180831161010557829003601f168201915b505050505081565b60008054906101000a900473ffffffffffffffffffffffffffffffffffffffff1673ffffffffffffffffffffffffffffffffffffffff163373ffffffffffffffffffffffffffffffffffffffff16146101b8576040517f08c379a00000000000000000000000000000000000000000000000000000000081526004016101af90610688565b60405180910390fd5b80600190805190602001906101ce9291906102eb565b5050565b60008054906101000a900473ffffffffffffffffffffffffffffffffffffffff1673ffffffffffffffffffffffffffffffffffffffff163373ffffffffffffffffffffffffffffffffffffffff1614610260576040517f08c379a000000000000000000000000000000000000000000000000000000000815260040161025790610688565b60405180910390fd5b60001515600260009054906101000a900460ff161515146102b6576040517f08c379a00000000000000000000000000000000000000000000000000000000081526004016102ad906106f4565b60405180910390fd5b80600190805190602001906102cc9291906102eb565b506001600260006101000a81548160ff02191690831515021790555050565b8280546102f79061060a565b90600052602060002090601f0160209004810192826103195760008555610360565b82601f1061033257805160ff1916838001178555610360565b82800160010185558215610360579182015b8281111561035f578251825591602001919060010190610344565b5b50905061036d9190610371565b5090565b5b8082111561038a576000816000905550600101610372565b5090565b600081519050919050565b600082825260208201905092915050565b60005b838110156103c85780820151818401526020810190506103ad565b838111156103d7576000848401525b50505050565b6000601f19601f8301169050919050565b60006103f98261038e565b6104038185610399565b93506104138185602086016103aa565b61041c816103dd565b840191505092915050565b6000602082019050818103600083015261044181846103ee565b905092915050565b6000604051905090565b600080fd5b600080fd5b600080fd5b600080fd5b7f4e487b7100000000000000000000000000000000000000000000000000000000600052604160045260246000fd5b61049f826103dd565b810181811067ffffffffffffffff821117156104be576104bd610467565b5b80604052505050565b60006104d1610449565b90506104dd8282610496565b919050565b600067ffffffffffffffff8211156104fd576104fc610467565b5b610506826103dd565b9050602081019050919050565b82818337600083830152505050565b6000610535610530846104e2565b6104c7565b90508281526020810184848401111561055157610550610462565b5b61055c848285610513565b509392505050565b600082601f8301126105795761057861045d565b5b8135610589848260208601610522565b91505092915050565b6000602082840312156105a8576105a7610453565b5b600082013567ffffffffffffffff8111156105c6576105c5610458565b5b6105d284828501610564565b91505092915050565b7f4e487b7100000000000000000000000000000000000000000000000000000000600052602260045260246000fd5b6000600282049050600182168061062257607f821691505b60208210811415610636576106356105db565b5b50919050565b7f63616c6c6572206d757374206265206f776e6572000000000000000000000000600082015250565b6000610672601483610399565b915061067d8261063c565b602082019050919050565b600060208201905081810360008301526106a181610665565b9050919050565b7f63616e206f6e6c7920736574206e616d65206f6e636500000000000000000000600082015250565b60006106de601683610399565b91506106e9826106a8565b602082019050919050565b6000602082019050818103600083015261070d816106d1565b905091905056fea2646970667358221220c98bceb61b35a44dbb49a18944e020f769e6df91f27ee277bea0d55681ffc64964736f6c63430008090033",
  "linkReferences": {},
  "deployedLinkReferences": {}
}