{
  "_format": "hh-sol-artifact-1",
  "contractName": "Functions5",
  "sourceName": "contracts/Functions.sol",
  "abi": [
    {
      "inputs": [
        {
          "internalType": "uint256",
          "name": "a",
          "type": "uint256"
        },
        {
          "internalType": "uint256",
          "name": "b",
          "type": "uint256"
        }
      ],
      "name": "add",
      "outputs": [
        {
          "internalType": "uint256",
          "name": "",
          "type": "uint256"
        }
      ],
      "stateMutability": "pure",
      "type": "function"
    },
    {
      "inputs": [],
      "name": "balance",
      "outputs": [
        {
          "internalType": "uint256",
          "name": "",
          "type": "uint256"
        }
      ],
      "stateMutability": "view",
      "type": "function"
    },
    {
      "inputs": [],
      "name": "getName",
      "outputs": [
        {
          "internalType": "string",
          "name": "",
          "type": "string"
        }
      ],
      "stateMutability": "view",
      "type": "function"
    },
    {
      "inputs": [],
      "name": "name",
      "outputs": [
        {
          "internalType": "string",
          "name": "",
          "type": "string"
        }
      ],
      "stateMutability": "view",
      "type": "function"
    },
    {
      "inputs": [],
      "name": "pay",
      "outputs": [],
      "stateMutability": "payable",
      "type": "function"
    }
  ],
  "bytecode": "0x60806040526040518060400160405280600981526020017f4578616d706c65203500000000000000000000000000000000000000000000008152506000908051906020019061004f929190610062565b5034801561005c57600080fd5b50610166565b82805461006e90610134565b90600052602060002090601f01602090048101928261009057600085556100d7565b82601f106100a957805160ff19168380011785556100d7565b828001600101855582156100d7579182015b828111156100d65782518255916020019190600101906100bb565b5b5090506100e491906100e8565b5090565b5b808211156101015760008160009055506001016100e9565b5090565b7f4e487b7100000000000000000000000000000000000000000000000000000000600052602260045260246000fd5b6000600282049050600182168061014c57607f821691505b602082108114156101605761015f610105565b5b50919050565b6104d8806101756000396000f3fe60806040526004361061004a5760003560e01c806306fdde031461004f57806317d7de7c1461007a5780631b9265b8146100a5578063771602f7146100af578063b69ef8a8146100ec575b600080fd5b34801561005b57600080fd5b50610064610117565b60405161007191906102f5565b60405180910390f35b34801561008657600080fd5b5061008f6101a5565b60405161009c91906102f5565b60405180910390f35b6100ad610237565b005b3480156100bb57600080fd5b506100d660048036038101906100d19190610352565b610240565b6040516100e391906103a1565b60405180910390f35b3480156100f857600080fd5b50610101610256565b60405161010e91906103a1565b60405180910390f35b60008054610124906103eb565b80601f0160208091040260200160405190810160405280929190818152602001828054610150906103eb565b801561019d5780601f106101725761010080835404028352916020019161019d565b820191906000526020600020905b81548152906001019060200180831161018057829003601f168201915b505050505081565b6060600080546101b4906103eb565b80601f01602080910402602001604051908101604052809291908181526020018280546101e0906103eb565b801561022d5780601f106102025761010080835404028352916020019161022d565b820191906000526020600020905b81548152906001019060200180831161021057829003601f168201915b5050505050905090565b34600181905550565b6000818361024e919061044c565b905092915050565b60015481565b600081519050919050565b600082825260208201905092915050565b60005b8381101561029657808201518184015260208101905061027b565b838111156102a5576000848401525b50505050565b6000601f19601f8301169050919050565b60006102c78261025c565b6102d18185610267565b93506102e1818560208601610278565b6102ea816102ab565b840191505092915050565b6000602082019050818103600083015261030f81846102bc565b905092915050565b600080fd5b6000819050919050565b61032f8161031c565b811461033a57600080fd5b50565b60008135905061034c81610326565b92915050565b6000806040838503121561036957610368610317565b5b60006103778582860161033d565b92505060206103888582860161033d565b9150509250929050565b61039b8161031c565b82525050565b60006020820190506103b66000830184610392565b92915050565b7f4e487b7100000000000000000000000000000000000000000000000000000000600052602260045260246000fd5b6000600282049050600182168061040357607f821691505b60208210811415610417576104166103bc565b5b50919050565b7f4e487b7100000000000000000000000000000000000000000000000000000000600052601160045260246000fd5b60006104578261031c565b91506104628361031c565b9250827fffffffffffffffffffffffffffffffffffffffffffffffffffffffffffffffff038211156104975761049661041d565b5b82820190509291505056fea26469706673582212205e49929393a930d2658c27b7afcfad056edb1080c95b1ac37b03f588a8e3a78d64736f6c63430008090033",
  "linkReferences": {},
  "deployedLinkReferences": {}
}