{
  "_format": "hh-sol-artifact-1",
  "contractName": "Functions4",
  "sourceName": "contracts/Functions.sol",
  "abi": [
    {
      "inputs": [],
      "name": "count",
      "outputs": [
        {
          "internalType": "uint256",
          "name": "",
          "type": "uint256"
        }
      ],
      "stateMutability": "view",
      "type": "function"
    },
    {
      "inputs": [],
      "name": "increment1",
      "outputs": [],
      "stateMutability": "nonpayable",
      "type": "function"
    },
    {
      "inputs": [],
      "name": "increment2",
      "outputs": [],
      "stateMutability": "nonpayable",
      "type": "function"
    },
    {
      "inputs": [],
      "name": "increment4",
      "outputs": [],
      "stateMutability": "nonpayable",
      "type": "function"
    },
    {
      "inputs": [],
      "name": "increment5",
      "outputs": [],
      "stateMutability": "nonpayable",
      "type": "function"
    },
    {
      "inputs": [],
      "name": "increment7",
      "outputs": [],
      "stateMutability": "nonpayable",
      "type": "function"
    }
  ],
  "bytecode": "0x608060405234801561001057600080fd5b50610226806100206000396000f3fe608060405234801561001057600080fd5b50600436106100625760003560e01c806306661abd14610067578063489780a7146100855780637b345b7a1461008f57806392a4098514610099578063ab26639a146100a3578063ab57b128146100ad575b600080fd5b61006f6100b7565b60405161007c9190610150565b60405180910390f35b61008d6100bd565b005b6100976100c7565b005b6100a16100de565b005b6100ab6100f5565b005b6100b56100ff565b005b60005481565b6100c5610109565b565b60016000546100d6919061019a565b600081905550565b60016000546100ed919061019a565b600081905550565b6100fd610120565b565b6101076100c7565b565b6001600054610118919061019a565b600081905550565b600160005461012f919061019a565b600081905550565b6000819050919050565b61014a81610137565b82525050565b60006020820190506101656000830184610141565b92915050565b7f4e487b7100000000000000000000000000000000000000000000000000000000600052601160045260246000fd5b60006101a582610137565b91506101b083610137565b9250827fffffffffffffffffffffffffffffffffffffffffffffffffffffffffffffffff038211156101e5576101e461016b565b5b82820190509291505056fea2646970667358221220cb755e35d51bc939529b503da31a51b7b6dc8dd66e61801047cf6104eb6b055b64736f6c63430008090033",
  "linkReferences": {},
  "deployedLinkReferences": {}
}