{
  "_format": "hh-sol-artifact-1",
  "contractName": "Functions1",
  "sourceName": "contracts/Functions.sol",
  "abi": [
    {
      "inputs": [],
      "name": "getName",
      "outputs": [
        {
          "internalType": "string",
          "name": "",
          "type": "string"
        }
      ],
      "stateMutability": "view",
      "type": "function"
    },
    {
      "inputs": [],
      "name": "resetName",
      "outputs": [],
      "stateMutability": "nonpayable",
      "type": "function"
    },
    {
      "inputs": [
        {
          "internalType": "string",
          "name": "_name",
          "type": "string"
        }
      ],
      "name": "setName",
      "outputs": [],
      "stateMutability": "nonpayable",
      "type": "function"
    }
  ],
  "bytecode": "0x60806040526040518060400160405280600981526020017f4578616d706c65203100000000000000000000000000000000000000000000008152506000908051906020019061004f929190610062565b5034801561005c57600080fd5b50610166565b82805461006e90610134565b90600052602060002090601f01602090048101928261009057600085556100d7565b82601f106100a957805160ff19168380011785556100d7565b828001600101855582156100d7579182015b828111156100d65782518255916020019190600101906100bb565b5b5090506100e491906100e8565b5090565b5b808211156101015760008160009055506001016100e9565b5090565b7f4e487b7100000000000000000000000000000000000000000000000000000000600052602260045260246000fd5b6000600282049050600182168061014c57607f821691505b602082108114156101605761015f610105565b5b50919050565b61050b806101756000396000f3fe608060405234801561001057600080fd5b50600436106100415760003560e01c806317d7de7c1461004657806379b7801314610064578063c47f00271461006e575b600080fd5b61004e61008a565b60405161005b91906102c0565b60405180910390f35b61006c61011c565b005b6100886004803603810190610083919061042b565b61016a565b005b606060008054610099906104a3565b80601f01602080910402602001604051908101604052809291908181526020018280546100c5906104a3565b80156101125780601f106100e757610100808354040283529160200191610112565b820191906000526020600020905b8154815290600101906020018083116100f557829003601f168201915b5050505050905090565b6040518060400160405280600981526020017f4578616d706c652031000000000000000000000000000000000000000000000081525060009080519060200190610167929190610184565b50565b8060009080519060200190610180929190610184565b5050565b828054610190906104a3565b90600052602060002090601f0160209004810192826101b257600085556101f9565b82601f106101cb57805160ff19168380011785556101f9565b828001600101855582156101f9579182015b828111156101f85782518255916020019190600101906101dd565b5b509050610206919061020a565b5090565b5b8082111561022357600081600090555060010161020b565b5090565b600081519050919050565b600082825260208201905092915050565b60005b83811015610261578082015181840152602081019050610246565b83811115610270576000848401525b50505050565b6000601f19601f8301169050919050565b600061029282610227565b61029c8185610232565b93506102ac818560208601610243565b6102b581610276565b840191505092915050565b600060208201905081810360008301526102da8184610287565b905092915050565b6000604051905090565b600080fd5b600080fd5b600080fd5b600080fd5b7f4e487b7100000000000000000000000000000000000000000000000000000000600052604160045260246000fd5b61033882610276565b810181811067ffffffffffffffff8211171561035757610356610300565b5b80604052505050565b600061036a6102e2565b9050610376828261032f565b919050565b600067ffffffffffffffff82111561039657610395610300565b5b61039f82610276565b9050602081019050919050565b82818337600083830152505050565b60006103ce6103c98461037b565b610360565b9050828152602081018484840111156103ea576103e96102fb565b5b6103f58482856103ac565b509392505050565b600082601f830112610412576104116102f6565b5b81356104228482602086016103bb565b91505092915050565b600060208284031215610441576104406102ec565b5b600082013567ffffffffffffffff81111561045f5761045e6102f1565b5b61046b848285016103fd565b91505092915050565b7f4e487b7100000000000000000000000000000000000000000000000000000000600052602260045260246000fd5b600060028204905060018216806104bb57607f821691505b602082108114156104cf576104ce610474565b5b5091905056fea264697066735822122015a7b3f3017092f0b3c593a66977a014d678fbcd12bf8163e95a4f47063205af64736f6c63430008090033",
  "linkReferences": {},
  "deployedLinkReferences": {}
}