{
  "_format": "hh-sol-artifact-1",
  "contractName": "Enums1",
  "sourceName": "contracts/Enums.sol",
  "abi": [
    {
      "inputs": [],
      "name": "complete",
      "outputs": [],
      "stateMutability": "nonpayable",
      "type": "function"
    },
    {
      "inputs": [],
      "name": "get",
      "outputs": [
        {
          "internalType": "enum Enums1.Status",
          "name": "",
          "type": "uint8"
        }
      ],
      "stateMutability": "view",
      "type": "function"
    },
    {
      "inputs": [],
      "name": "reset",
      "outputs": [],
      "stateMutability": "nonpayable",
      "type": "function"
    },
    {
      "inputs": [
        {
          "internalType": "enum Enums1.Status",
          "name": "_status",
          "type": "uint8"
        }
      ],
      "name": "set",
      "outputs": [],
      "stateMutability": "nonpayable",
      "type": "function"
    },
    {
      "inputs": [],
      "name": "status",
      "outputs": [
        {
          "internalType": "enum Enums1.Status",
          "name": "",
          "type": "uint8"
        }
      ],
      "stateMutability": "view",
      "type": "function"
    }
  ],
  "bytecode": "0x608060405234801561001057600080fd5b50610279806100206000396000f3fe608060405234801561001057600080fd5b50600436106100575760003560e01c8063200d2ed21461005c57806324b8ba5f1461007a578063522e1177146100965780636d4ce63c146100a0578063d826f88f146100be575b600080fd5b6100646100c8565b60405161007191906101d1565b60405180910390f35b610094600480360381019061008f9190610216565b6100d9565b005b61009e610105565b005b6100a8610131565b6040516100b591906101d1565b60405180910390f35b6100c6610147565b005b60008054906101000a900460ff1681565b806000806101000a81548160ff021916908360028111156100fd576100fc61015a565b5b021790555050565b60026000806101000a81548160ff0219169083600281111561012a5761012961015a565b5b0217905550565b60008060009054906101000a900460ff16905090565b6000806101000a81549060ff0219169055565b7f4e487b7100000000000000000000000000000000000000000000000000000000600052602160045260246000fd5b6003811061019a5761019961015a565b5b50565b60008190506101ab82610189565b919050565b60006101bb8261019d565b9050919050565b6101cb816101b0565b82525050565b60006020820190506101e660008301846101c2565b92915050565b600080fd5b600381106101fe57600080fd5b50565b600081359050610210816101f1565b92915050565b60006020828403121561022c5761022b6101ec565b5b600061023a84828501610201565b9150509291505056fea26469706673582212206ad3fdaa32c3690d6d2b097cb01d3363cb469445698e0ed74e0d301a6d24a8f364736f6c63430008090033",
  "linkReferences": {},
  "deployedLinkReferences": {}
}