{
  "_format": "hh-sol-artifact-1",
  "contractName": "Structs1",
  "sourceName": "contracts/Structs.sol",
  "abi": [
    {
      "inputs": [
        {
          "internalType": "string",
          "name": "_title",
          "type": "string"
        },
        {
          "internalType": "string",
          "name": "_author",
          "type": "string"
        }
      ],
      "name": "add1",
      "outputs": [],
      "stateMutability": "nonpayable",
      "type": "function"
    },
    {
      "inputs": [
        {
          "internalType": "string",
          "name": "_title",
          "type": "string"
        },
        {
          "internalType": "string",
          "name": "_author",
          "type": "string"
        }
      ],
      "name": "add2",
      "outputs": [],
      "stateMutability": "nonpayable",
      "type": "function"
    },
    {
      "inputs": [
        {
          "internalType": "string",
          "name": "_title",
          "type": "string"
        },
        {
          "internalType": "string",
          "name": "_author",
          "type": "string"
        }
      ],
      "name": "add3",
      "outputs": [],
      "stateMutability": "nonpayable",
      "type": "function"
    },
    {
      "inputs": [
        {
          "internalType": "uint256",
          "name": "",
          "type": "uint256"
        }
      ],
      "name": "books",
      "outputs": [
        {
          "internalType": "string",
          "name": "title",
          "type": "string"
        },
        {
          "internalType": "string",
          "name": "author",
          "type": "string"
        },
        {
          "internalType": "bool",
          "name": "completed",
          "type": "bool"
        }
      ],
      "stateMutability": "view",
      "type": "function"
    },
    {
      "inputs": [
        {
          "internalType": "uint256",
          "name": "_index",
          "type": "uint256"
        }
      ],
      "name": "complete",
      "outputs": [],
      "stateMutability": "nonpayable",
      "type": "function"
    },
    {
      "inputs": [
        {
          "internalType": "uint256",
          "name": "_index",
          "type": "uint256"
        }
      ],
      "name": "get",
      "outputs": [
        {
          "internalType": "string",
          "name": "title",
          "type": "string"
        },
        {
          "internalType": "string",
          "name": "author",
          "type": "string"
        },
        {
          "internalType": "bool",
          "name": "completed",
          "type": "bool"
        }
      ],
      "stateMutability": "view",
      "type": "function"
    }
  ],
  "bytecode": "0x608060405234801561001057600080fd5b50610ae4806100206000396000f3fe608060405234801561001057600080fd5b50600436106100625760003560e01c806338abfe76146100675780633a6d35c714610083578063687440461461009f5780639507d39a146100d1578063971d852f14610103578063dc0feac01461011f575b600080fd5b610081600480360381019061007c919061085b565b61013b565b005b61009d6004803603810190610098919061085b565b6101e4565b005b6100b960048036038101906100b49190610909565b61028b565b6040516100c8939291906109d9565b60405180910390f35b6100eb60048036038101906100e69190610909565b6103e2565b6040516100fa939291906109d9565b60405180910390f35b61011d60048036038101906101189190610909565b61054c565b005b6101396004803603810190610134919061085b565b610592565b005b6000604051806060016040528084815260200183815260200160001515815250908060018154018082558091505060019003906000526020600020906003020160009091909190915060008201518160000190805190602001906101a092919061063b565b5060208201518160010190805190602001906101bd92919061063b565b5060408201518160020160006101000a81548160ff02191690831515021790555050505050565b6101ec6106c1565b8281600001819052508181602001819052506000819080600181540180825580915050600190039060005260206000209060030201600090919091909150600082015181600001908051906020019061024692919061063b565b50602082015181600101908051906020019061026392919061063b565b5060408201518160020160006101000a81548160ff0219169083151502179055505050505050565b6000818154811061029b57600080fd5b90600052602060002090600302016000915090508060000180546102be90610a4d565b80601f01602080910402602001604051908101604052809291908181526020018280546102ea90610a4d565b80156103375780601f1061030c57610100808354040283529160200191610337565b820191906000526020600020905b81548152906001019060200180831161031a57829003601f168201915b50505050509080600101805461034c90610a4d565b80601f016020809104026020016040519081016040528092919081815260200182805461037890610a4d565b80156103c55780601f1061039a576101008083540402835291602001916103c5565b820191906000526020600020905b8154815290600101906020018083116103a857829003601f168201915b5050505050908060020160009054906101000a900460ff16905083565b606080600080600085815481106103fc576103fb610a7f565b5b9060005260206000209060030201905080600001816001018260020160009054906101000a900460ff1682805461043290610a4d565b80601f016020809104026020016040519081016040528092919081815260200182805461045e90610a4d565b80156104ab5780601f10610480576101008083540402835291602001916104ab565b820191906000526020600020905b81548152906001019060200180831161048e57829003601f168201915b505050505092508180546104be90610a4d565b80601f01602080910402602001604051908101604052809291908181526020018280546104ea90610a4d565b80156105375780601f1061050c57610100808354040283529160200191610537565b820191906000526020600020905b81548152906001019060200180831161051a57829003601f168201915b50505050509150935093509350509193909250565b600080828154811061056157610560610a7f565b5b9060005260206000209060030201905060018160020160006101000a81548160ff0219169083151502179055505050565b6000604051806060016040528084815260200183815260200160001515815250908060018154018082558091505060019003906000526020600020906003020160009091909190915060008201518160000190805190602001906105f792919061063b565b50602082015181600101908051906020019061061492919061063b565b5060408201518160020160006101000a81548160ff02191690831515021790555050505050565b82805461064790610a4d565b90600052602060002090601f01602090048101928261066957600085556106b0565b82601f1061068257805160ff19168380011785556106b0565b828001600101855582156106b0579182015b828111156106af578251825591602001919060010190610694565b5b5090506106bd91906106e4565b5090565b604051806060016040528060608152602001606081526020016000151581525090565b5b808211156106fd5760008160009055506001016106e5565b5090565b6000604051905090565b600080fd5b600080fd5b600080fd5b600080fd5b6000601f19601f8301169050919050565b7f4e487b7100000000000000000000000000000000000000000000000000000000600052604160045260246000fd5b6107688261071f565b810181811067ffffffffffffffff8211171561078757610786610730565b5b80604052505050565b600061079a610701565b90506107a6828261075f565b919050565b600067ffffffffffffffff8211156107c6576107c5610730565b5b6107cf8261071f565b9050602081019050919050565b82818337600083830152505050565b60006107fe6107f9846107ab565b610790565b90508281526020810184848401111561081a5761081961071a565b5b6108258482856107dc565b509392505050565b600082601f83011261084257610841610715565b5b81356108528482602086016107eb565b91505092915050565b600080604083850312156108725761087161070b565b5b600083013567ffffffffffffffff8111156108905761088f610710565b5b61089c8582860161082d565b925050602083013567ffffffffffffffff8111156108bd576108bc610710565b5b6108c98582860161082d565b9150509250929050565b6000819050919050565b6108e6816108d3565b81146108f157600080fd5b50565b600081359050610903816108dd565b92915050565b60006020828403121561091f5761091e61070b565b5b600061092d848285016108f4565b91505092915050565b600081519050919050565b600082825260208201905092915050565b60005b83811015610970578082015181840152602081019050610955565b8381111561097f576000848401525b50505050565b600061099082610936565b61099a8185610941565b93506109aa818560208601610952565b6109b38161071f565b840191505092915050565b60008115159050919050565b6109d3816109be565b82525050565b600060608201905081810360008301526109f38186610985565b90508181036020830152610a078185610985565b9050610a1660408301846109ca565b949350505050565b7f4e487b7100000000000000000000000000000000000000000000000000000000600052602260045260246000fd5b60006002820490506001821680610a6557607f821691505b60208210811415610a7957610a78610a1e565b5b50919050565b7f4e487b7100000000000000000000000000000000000000000000000000000000600052603260045260246000fdfea2646970667358221220741b9162288113d8d3c4ed7632630f26fe34654148ba76bc9f61d6cb0726e45a64736f6c63430008090033",
  "linkReferences": {},
  "deployedLinkReferences": {}
}