{
  "_format": "hh-sol-artifact-1",
  "contractName": "Caller",
  "sourceName": "contracts/Variables.sol",
  "abi": [
    {
      "inputs": [],
      "name": "getName",
      "outputs": [
        {
          "internalType": "string",
          "name": "",
          "type": "string"
        }
      ],
      "stateMutability": "nonpayable",
      "type": "function"
    },
    {
      "inputs": [],
      "name": "name4",
      "outputs": [
        {
          "internalType": "string",
          "name": "",
          "type": "string"
        }
      ],
      "stateMutability": "view",
      "type": "function"
    }
  ],
  "bytecode": "0x60806040526040518060400160405280600681526020017f4e616d65203100000000000000000000000000000000000000000000000000008152506000908051906020019061004f929190610146565b506040518060400160405280600681526020017f4e616d65203200000000000000000000000000000000000000000000000000008152506001908051906020019061009b929190610146565b506040518060400160405280600681526020017f4e616d6520330000000000000000000000000000000000000000000000000000815250600290805190602001906100e7929190610146565b506040518060400160405280600681526020017f4e616d652034000000000000000000000000000000000000000000000000000081525060039080519060200190610133929190610146565b5034801561014057600080fd5b5061024a565b82805461015290610218565b90600052602060002090601f01602090048101928261017457600085556101bb565b82601f1061018d57805160ff19168380011785556101bb565b828001600101855582156101bb579182015b828111156101ba57825182559160200191906001019061019f565b5b5090506101c891906101cc565b5090565b5b808211156101e55760008160009055506001016101cd565b5090565b7f4e487b7100000000000000000000000000000000000000000000000000000000600052602260045260246000fd5b6000600282049050600182168061023057607f821691505b60208210811415610244576102436101e9565b5b50919050565b6102e9806102596000396000f3fe608060405234801561001057600080fd5b50600436106100365760003560e01c806317d7de7c1461003b578063917051ed14610059575b600080fd5b610043610077565b6040516100509190610230565b60405180910390f35b610061610109565b60405161006e9190610230565b60405180910390f35b60606002805461008690610281565b80601f01602080910402602001604051908101604052809291908181526020018280546100b290610281565b80156100ff5780601f106100d4576101008083540402835291602001916100ff565b820191906000526020600020905b8154815290600101906020018083116100e257829003601f168201915b5050505050905090565b6003805461011690610281565b80601f016020809104026020016040519081016040528092919081815260200182805461014290610281565b801561018f5780601f106101645761010080835404028352916020019161018f565b820191906000526020600020905b81548152906001019060200180831161017257829003601f168201915b505050505081565b600081519050919050565b600082825260208201905092915050565b60005b838110156101d15780820151818401526020810190506101b6565b838111156101e0576000848401525b50505050565b6000601f19601f8301169050919050565b600061020282610197565b61020c81856101a2565b935061021c8185602086016101b3565b610225816101e6565b840191505092915050565b6000602082019050818103600083015261024a81846101f7565b905092915050565b7f4e487b7100000000000000000000000000000000000000000000000000000000600052602260045260246000fd5b6000600282049050600182168061029957607f821691505b602082108114156102ad576102ac610252565b5b5091905056fea2646970667358221220704bb59806a4d54578bb098bd0f460644ffb2cd898da622ed073ee0de248796464736f6c63430008090033",
  "linkReferences": {},
  "deployedLinkReferences": {}
}