{
  "_format": "hh-sol-artifact-1",
  "contractName": "Variables5",
  "sourceName": "contracts/Variables.sol",
  "abi": [
    {
      "inputs": [],
      "stateMutability": "nonpayable",
      "type": "constructor"
    },
    {
      "inputs": [],
      "name": "amount",
      "outputs": [
        {
          "internalType": "uint256",
          "name": "",
          "type": "uint256"
        }
      ],
      "stateMutability": "view",
      "type": "function"
    },
    {
      "inputs": [],
      "name": "contractAddress",
      "outputs": [
        {
          "internalType": "address",
          "name": "",
          "type": "address"
        }
      ],
      "stateMutability": "view",
      "type": "function"
    },
    {
      "inputs": [],
      "name": "getBlockInfo",
      "outputs": [
        {
          "internalType": "uint256",
          "name": "",
          "type": "uint256"
        },
        {
          "internalType": "uint256",
          "name": "",
          "type": "uint256"
        },
        {
          "internalType": "uint256",
          "name": "",
          "type": "uint256"
        }
      ],
      "stateMutability": "view",
      "type": "function"
    },
    {
      "inputs": [],
      "name": "origin",
      "outputs": [
        {
          "internalType": "address",
          "name": "",
          "type": "address"
        }
      ],
      "stateMutability": "view",
      "type": "function"
    },
    {
      "inputs": [],
      "name": "pay",
      "outputs": [],
      "stateMutability": "payable",
      "type": "function"
    },
    {
      "inputs": [],
      "name": "payer",
      "outputs": [
        {
          "internalType": "address",
          "name": "",
          "type": "address"
        }
      ],
      "stateMutability": "view",
      "type": "function"
    }
  ],
  "bytecode": "0x608060405234801561001057600080fd5b50306000806101000a81548173ffffffffffffffffffffffffffffffffffffffff021916908373ffffffffffffffffffffffffffffffffffffffff16021790555061034d806100606000396000f3fe6080604052600436106100545760003560e01c806281943914610059578063123119cd146100865780631b9265b8146100b1578063938b5f32146100bb578063aa8c217c146100e6578063f6b4dfb414610111575b600080fd5b34801561006557600080fd5b5061006e61013c565b60405161007d93929190610269565b60405180910390f35b34801561009257600080fd5b5061009b61014f565b6040516100a891906102e1565b60405180910390f35b6100b9610175565b005b3480156100c757600080fd5b506100d0610200565b6040516100dd91906102e1565b60405180910390f35b3480156100f257600080fd5b506100fb610226565b60405161010891906102fc565b60405180910390f35b34801561011d57600080fd5b5061012661022c565b60405161013391906102e1565b60405180910390f35b6000806000434246925092509250909192565b600160009054906101000a900473ffffffffffffffffffffffffffffffffffffffff1681565b33600160006101000a81548173ffffffffffffffffffffffffffffffffffffffff021916908373ffffffffffffffffffffffffffffffffffffffff16021790555032600260006101000a81548173ffffffffffffffffffffffffffffffffffffffff021916908373ffffffffffffffffffffffffffffffffffffffff16021790555034600381905550565b600260009054906101000a900473ffffffffffffffffffffffffffffffffffffffff1681565b60035481565b60008054906101000a900473ffffffffffffffffffffffffffffffffffffffff1681565b6000819050919050565b61026381610250565b82525050565b600060608201905061027e600083018661025a565b61028b602083018561025a565b610298604083018461025a565b949350505050565b600073ffffffffffffffffffffffffffffffffffffffff82169050919050565b60006102cb826102a0565b9050919050565b6102db816102c0565b82525050565b60006020820190506102f660008301846102d2565b92915050565b6000602082019050610311600083018461025a565b9291505056fea26469706673582212200b055f6f8689e01fe8c22963b92f774973c407c64dd3963094c457339bf79c3d64736f6c63430008090033",
  "linkReferences": {},
  "deployedLinkReferences": {}
}