{
  "_format": "hh-sol-artifact-1",
  "contractName": "Variables6",
  "sourceName": "contracts/Variables.sol",
  "abi": [
    {
      "inputs": [],
      "name": "name4",
      "outputs": [
        {
          "internalType": "string",
          "name": "",
          "type": "string"
        }
      ],
      "stateMutability": "view",
      "type": "function"
    }
  ],
  "bytecode": "0x60806040526040518060400160405280600681526020017f4e616d65203100000000000000000000000000000000000000000000000000008152506000908051906020019061004f929190610146565b506040518060400160405280600681526020017f4e616d65203200000000000000000000000000000000000000000000000000008152506001908051906020019061009b929190610146565b506040518060400160405280600681526020017f4e616d6520330000000000000000000000000000000000000000000000000000815250600290805190602001906100e7929190610146565b506040518060400160405280600681526020017f4e616d652034000000000000000000000000000000000000000000000000000081525060039080519060200190610133929190610146565b5034801561014057600080fd5b5061024a565b82805461015290610218565b90600052602060002090601f01602090048101928261017457600085556101bb565b82601f1061018d57805160ff19168380011785556101bb565b828001600101855582156101bb579182015b828111156101ba57825182559160200191906001019061019f565b5b5090506101c891906101cc565b5090565b5b808211156101e55760008160009055506001016101cd565b5090565b7f4e487b7100000000000000000000000000000000000000000000000000000000600052602260045260246000fd5b6000600282049050600182168061023057607f821691505b60208210811415610244576102436101e9565b5b50919050565b61022e806102596000396000f3fe608060405234801561001057600080fd5b506004361061002b5760003560e01c8063917051ed14610030575b600080fd5b61003861004e565b6040516100459190610175565b60405180910390f35b6003805461005b906101c6565b80601f0160208091040260200160405190810160405280929190818152602001828054610087906101c6565b80156100d45780601f106100a9576101008083540402835291602001916100d4565b820191906000526020600020905b8154815290600101906020018083116100b757829003601f168201915b505050505081565b600081519050919050565b600082825260208201905092915050565b60005b838110156101165780820151818401526020810190506100fb565b83811115610125576000848401525b50505050565b6000601f19601f8301169050919050565b6000610147826100dc565b61015181856100e7565b93506101618185602086016100f8565b61016a8161012b565b840191505092915050565b6000602082019050818103600083015261018f818461013c565b905092915050565b7f4e487b7100000000000000000000000000000000000000000000000000000000600052602260045260246000fd5b600060028204905060018216806101de57607f821691505b602082108114156101f2576101f1610197565b5b5091905056fea2646970667358221220bb3d9096090da687e0b3435079457fb6f9956aa2f61007599903a974fdd1394d64736f6c63430008090033",
  "linkReferences": {},
  "deployedLinkReferences": {}
}