{
  "_format": "hh-sol-artifact-1",
  "contractName": "Variables2",
  "sourceName": "contracts/Variables.sol",
  "abi": [
    {
      "inputs": [
        {
          "internalType": "string",
          "name": "_name",
          "type": "string"
        }
      ],
      "stateMutability": "nonpayable",
      "type": "constructor"
    },
    {
      "inputs": [],
      "name": "name",
      "outputs": [
        {
          "internalType": "string",
          "name": "",
          "type": "string"
        }
      ],
      "stateMutability": "view",
      "type": "function"
    },
    {
      "inputs": [],
      "name": "name2",
      "outputs": [
        {
          "internalType": "string",
          "name": "",
          "type": "string"
        }
      ],
      "stateMutability": "view",
      "type": "function"
    },
    {
      "inputs": [
        {
          "internalType": "string",
          "name": "_name2",
          "type": "string"
        }
      ],
      "name": "setName2",
      "outputs": [],
      "stateMutability": "nonpayable",
      "type": "function"
    }
  ],
  "bytecode": "0x60806040523480156200001157600080fd5b50604051620008c5380380620008c58339818101604052810190620000379190620002a4565b80600090805190602001906200004f92919062000057565b50506200035a565b828054620000659062000324565b90600052602060002090601f016020900481019282620000895760008555620000d5565b82601f10620000a457805160ff1916838001178555620000d5565b82800160010185558215620000d5579182015b82811115620000d4578251825591602001919060010190620000b7565b5b509050620000e49190620000e8565b5090565b5b8082111562000103576000816000905550600101620000e9565b5090565b6000604051905090565b600080fd5b600080fd5b600080fd5b600080fd5b6000601f19601f8301169050919050565b7f4e487b7100000000000000000000000000000000000000000000000000000000600052604160045260246000fd5b620001708262000125565b810181811067ffffffffffffffff8211171562000192576200019162000136565b5b80604052505050565b6000620001a762000107565b9050620001b5828262000165565b919050565b600067ffffffffffffffff821115620001d857620001d762000136565b5b620001e38262000125565b9050602081019050919050565b60005b8381101562000210578082015181840152602081019050620001f3565b8381111562000220576000848401525b50505050565b60006200023d6200023784620001ba565b6200019b565b9050828152602081018484840111156200025c576200025b62000120565b5b62000269848285620001f0565b509392505050565b600082601f8301126200028957620002886200011b565b5b81516200029b84826020860162000226565b91505092915050565b600060208284031215620002bd57620002bc62000111565b5b600082015167ffffffffffffffff811115620002de57620002dd62000116565b5b620002ec8482850162000271565b91505092915050565b7f4e487b7100000000000000000000000000000000000000000000000000000000600052602260045260246000fd5b600060028204905060018216806200033d57607f821691505b60208210811415620003545762000353620002f5565b5b50919050565b61055b806200036a6000396000f3fe608060405234801561001057600080fd5b50600436106100415760003560e01c806306fdde03146100465780634b67f6af14610064578063a401291314610082575b600080fd5b61004e61009e565b60405161005b9190610310565b60405180910390f35b61006c61012c565b6040516100799190610310565b60405180910390f35b61009c6004803603810190610097919061047b565b6101ba565b005b600080546100ab906104f3565b80601f01602080910402602001604051908101604052809291908181526020018280546100d7906104f3565b80156101245780601f106100f957610100808354040283529160200191610124565b820191906000526020600020905b81548152906001019060200180831161010757829003601f168201915b505050505081565b60018054610139906104f3565b80601f0160208091040260200160405190810160405280929190818152602001828054610165906104f3565b80156101b25780601f10610187576101008083540402835291602001916101b2565b820191906000526020600020905b81548152906001019060200180831161019557829003601f168201915b505050505081565b80600190805190602001906101d09291906101d4565b5050565b8280546101e0906104f3565b90600052602060002090601f0160209004810192826102025760008555610249565b82601f1061021b57805160ff1916838001178555610249565b82800160010185558215610249579182015b8281111561024857825182559160200191906001019061022d565b5b509050610256919061025a565b5090565b5b8082111561027357600081600090555060010161025b565b5090565b600081519050919050565b600082825260208201905092915050565b60005b838110156102b1578082015181840152602081019050610296565b838111156102c0576000848401525b50505050565b6000601f19601f8301169050919050565b60006102e282610277565b6102ec8185610282565b93506102fc818560208601610293565b610305816102c6565b840191505092915050565b6000602082019050818103600083015261032a81846102d7565b905092915050565b6000604051905090565b600080fd5b600080fd5b600080fd5b600080fd5b7f4e487b7100000000000000000000000000000000000000000000000000000000600052604160045260246000fd5b610388826102c6565b810181811067ffffffffffffffff821117156103a7576103a6610350565b5b80604052505050565b60006103ba610332565b90506103c6828261037f565b919050565b600067ffffffffffffffff8211156103e6576103e5610350565b5b6103ef826102c6565b9050602081019050919050565b82818337600083830152505050565b600061041e610419846103cb565b6103b0565b90508281526020810184848401111561043a5761043961034b565b5b6104458482856103fc565b509392505050565b600082601f83011261046257610461610346565b5b813561047284826020860161040b565b91505092915050565b6000602082840312156104915761049061033c565b5b600082013567ffffffffffffffff8111156104af576104ae610341565b5b6104bb8482850161044d565b91505092915050565b7f4e487b7100000000000000000000000000000000000000000000000000000000600052602260045260246000fd5b6000600282049050600182168061050b57607f821691505b6020821081141561051f5761051e6104c4565b5b5091905056fea2646970667358221220366b59726e741210fbad6987dfc36ee08108902eefd5cc23f2e9273f8414b33f64736f6c63430008090033",
  "linkReferences": {},
  "deployedLinkReferences": {}
}