{
  "_format": "hh-sol-artifact-1",
  "contractName": "Inheritance3",
  "sourceName": "contracts/Inheritance.sol",
  "abi": [
    {
      "inputs": [],
      "stateMutability": "nonpayable",
      "type": "constructor"
    },
    {
      "inputs": [],
      "name": "decimals",
      "outputs": [
        {
          "internalType": "uint256",
          "name": "",
          "type": "uint256"
        }
      ],
      "stateMutability": "view",
      "type": "function"
    },
    {
      "inputs": [],
      "name": "name",
      "outputs": [
        {
          "internalType": "string",
          "name": "",
          "type": "string"
        }
      ],
      "stateMutability": "view",
      "type": "function"
    },
    {
      "inputs": [],
      "name": "symbol",
      "outputs": [
        {
          "internalType": "string",
          "name": "",
          "type": "string"
        }
      ],
      "stateMutability": "view",
      "type": "function"
    },
    {
      "inputs": [],
      "name": "totalSupply",
      "outputs": [
        {
          "internalType": "uint256",
          "name": "",
          "type": "uint256"
        }
      ],
      "stateMutability": "view",
      "type": "function"
    }
  ],
  "bytecode": "0x608060405234801561001057600080fd5b5069d3c21bcecceda100000080600081905550506040518060400160405280600881526020017f4d7920546f6b656e0000000000000000000000000000000000000000000000008152506001908051906020019061006f9291906100c9565b506040518060400160405280600381526020017f4d544b0000000000000000000000000000000000000000000000000000000000815250600290805190602001906100bb9291906100c9565b5060126003819055506101cd565b8280546100d59061019b565b90600052602060002090601f0160209004810192826100f7576000855561013e565b82601f1061011057805160ff191683800117855561013e565b8280016001018555821561013e579182015b8281111561013d578251825591602001919060010190610122565b5b50905061014b919061014f565b5090565b5b80821115610168576000816000905550600101610150565b5090565b7f4e487b7100000000000000000000000000000000000000000000000000000000600052602260045260246000fd5b600060028204905060018216806101b357607f821691505b602082108114156101c7576101c661016c565b5b50919050565b610377806101dc6000396000f3fe608060405234801561001057600080fd5b506004361061004c5760003560e01c806306fdde031461005157806318160ddd1461006f578063313ce5671461008d57806395d89b41146100ab575b600080fd5b6100596100c9565b604051610066919061028a565b60405180910390f35b610077610157565b60405161008491906102c5565b60405180910390f35b61009561015d565b6040516100a291906102c5565b60405180910390f35b6100b3610163565b6040516100c0919061028a565b60405180910390f35b600180546100d69061030f565b80601f01602080910402602001604051908101604052809291908181526020018280546101029061030f565b801561014f5780601f106101245761010080835404028352916020019161014f565b820191906000526020600020905b81548152906001019060200180831161013257829003601f168201915b505050505081565b60005481565b60035481565b600280546101709061030f565b80601f016020809104026020016040519081016040528092919081815260200182805461019c9061030f565b80156101e95780601f106101be576101008083540402835291602001916101e9565b820191906000526020600020905b8154815290600101906020018083116101cc57829003601f168201915b505050505081565b600081519050919050565b600082825260208201905092915050565b60005b8381101561022b578082015181840152602081019050610210565b8381111561023a576000848401525b50505050565b6000601f19601f8301169050919050565b600061025c826101f1565b61026681856101fc565b935061027681856020860161020d565b61027f81610240565b840191505092915050565b600060208201905081810360008301526102a48184610251565b905092915050565b6000819050919050565b6102bf816102ac565b82525050565b60006020820190506102da60008301846102b6565b92915050565b7f4e487b7100000000000000000000000000000000000000000000000000000000600052602260045260246000fd5b6000600282049050600182168061032757607f821691505b6020821081141561033b5761033a6102e0565b5b5091905056fea26469706673582212207203d15bc0581513bb55dd4196c744d60135f37a19a7f9007a5a6db5c4a3fd4064736f6c63430008090033",
  "linkReferences": {},
  "deployedLinkReferences": {}
}