{
  "_format": "hh-sol-artifact-1",
  "contractName": "Inheritance1",
  "sourceName": "contracts/Inheritance.sol",
  "abi": [
    {
      "inputs": [],
      "name": "name",
      "outputs": [
        {
          "internalType": "string",
          "name": "",
          "type": "string"
        }
      ],
      "stateMutability": "view",
      "type": "function"
    },
    {
      "inputs": [
        {
          "internalType": "string",
          "name": "_name",
          "type": "string"
        }
      ],
      "name": "setName",
      "outputs": [],
      "stateMutability": "nonpayable",
      "type": "function"
    }
  ],
  "bytecode": "0x60806040526040518060400160405280600981526020017f4578616d706c65203100000000000000000000000000000000000000000000008152506001908051906020019061004f9291906100a2565b5034801561005c57600080fd5b50336000806101000a81548173ffffffffffffffffffffffffffffffffffffffff021916908373ffffffffffffffffffffffffffffffffffffffff1602179055506101a6565b8280546100ae90610174565b90600052602060002090601f0160209004810192826100d05760008555610117565b82601f106100e957805160ff1916838001178555610117565b82800160010185558215610117579182015b828111156101165782518255916020019190600101906100fb565b5b5090506101249190610128565b5090565b5b80821115610141576000816000905550600101610129565b5090565b7f4e487b7100000000000000000000000000000000000000000000000000000000600052602260045260246000fd5b6000600282049050600182168061018c57607f821691505b602082108114156101a05761019f610145565b5b50919050565b61059e806101b56000396000f3fe608060405234801561001057600080fd5b50600436106100365760003560e01c806306fdde031461003b578063c47f002714610059575b600080fd5b610043610075565b60405161005091906102e7565b60405180910390f35b610073600480360381019061006e9190610452565b610103565b005b60018054610082906104ca565b80601f01602080910402602001604051908101604052809291908181526020018280546100ae906104ca565b80156100fb5780601f106100d0576101008083540402835291602001916100fb565b820191906000526020600020905b8154815290600101906020018083116100de57829003601f168201915b505050505081565b60008054906101000a900473ffffffffffffffffffffffffffffffffffffffff1673ffffffffffffffffffffffffffffffffffffffff163373ffffffffffffffffffffffffffffffffffffffff1614610191576040517f08c379a000000000000000000000000000000000000000000000000000000000815260040161018890610548565b60405180910390fd5b80600190805190602001906101a79291906101ab565b5050565b8280546101b7906104ca565b90600052602060002090601f0160209004810192826101d95760008555610220565b82601f106101f257805160ff1916838001178555610220565b82800160010185558215610220579182015b8281111561021f578251825591602001919060010190610204565b5b50905061022d9190610231565b5090565b5b8082111561024a576000816000905550600101610232565b5090565b600081519050919050565b600082825260208201905092915050565b60005b8381101561028857808201518184015260208101905061026d565b83811115610297576000848401525b50505050565b6000601f19601f8301169050919050565b60006102b98261024e565b6102c38185610259565b93506102d381856020860161026a565b6102dc8161029d565b840191505092915050565b6000602082019050818103600083015261030181846102ae565b905092915050565b6000604051905090565b600080fd5b600080fd5b600080fd5b600080fd5b7f4e487b7100000000000000000000000000000000000000000000000000000000600052604160045260246000fd5b61035f8261029d565b810181811067ffffffffffffffff8211171561037e5761037d610327565b5b80604052505050565b6000610391610309565b905061039d8282610356565b919050565b600067ffffffffffffffff8211156103bd576103bc610327565b5b6103c68261029d565b9050602081019050919050565b82818337600083830152505050565b60006103f56103f0846103a2565b610387565b90508281526020810184848401111561041157610410610322565b5b61041c8482856103d3565b509392505050565b600082601f8301126104395761043861031d565b5b81356104498482602086016103e2565b91505092915050565b60006020828403121561046857610467610313565b5b600082013567ffffffffffffffff81111561048657610485610318565b5b61049284828501610424565b91505092915050565b7f4e487b7100000000000000000000000000000000000000000000000000000000600052602260045260246000fd5b600060028204905060018216806104e257607f821691505b602082108114156104f6576104f561049b565b5b50919050565b7f63616c6c6572206d757374206265206f776e6572000000000000000000000000600082015250565b6000610532601483610259565b915061053d826104fc565b602082019050919050565b6000602082019050818103600083015261056181610525565b905091905056fea264697066735822122039cd42bc0716d6ce111ef1533e71f6a48cb1e743a3f778d52b896aecd513867c64736f6c63430008090033",
  "linkReferences": {},
  "deployedLinkReferences": {}
}