{
  "_format": "hh-sol-artifact-1",
  "contractName": "Inheritance2",
  "sourceName": "contracts/Inheritance.sol",
  "abi": [
    {
      "inputs": [],
      "name": "withdraw",
      "outputs": [],
      "stateMutability": "nonpayable",
      "type": "function"
    },
    {
      "stateMutability": "payable",
      "type": "receive"
    }
  ],
  "bytecode": "0x608060405234801561001057600080fd5b50336000806101000a81548173ffffffffffffffffffffffffffffffffffffffff021916908373ffffffffffffffffffffffffffffffffffffffff16021790555061026c806100606000396000f3fe6080604052600436106100225760003560e01c80633ccfd60b1461002e57610029565b3661002957005b600080fd5b34801561003a57600080fd5b50610043610045565b005b60008054906101000a900473ffffffffffffffffffffffffffffffffffffffff1673ffffffffffffffffffffffffffffffffffffffff163373ffffffffffffffffffffffffffffffffffffffff16146100d3576040517f08c379a00000000000000000000000000000000000000000000000000000000081526004016100ca906101d0565b60405180910390fd5b600047905060008060009054906101000a900473ffffffffffffffffffffffffffffffffffffffff1673ffffffffffffffffffffffffffffffffffffffff168260405161011f90610221565b60006040518083038185875af1925050503d806000811461015c576040519150601f19603f3d011682016040523d82523d6000602084013e610161565b606091505b505090508061016f57600080fd5b5050565b600082825260208201905092915050565b7f63616c6c6572206d757374206265206f776e6572000000000000000000000000600082015250565b60006101ba601483610173565b91506101c582610184565b602082019050919050565b600060208201905081810360008301526101e9816101ad565b9050919050565b600081905092915050565b50565b600061020b6000836101f0565b9150610216826101fb565b600082019050919050565b600061022c826101fe565b915081905091905056fea2646970667358221220346b4a6cd9493bcb0d0a0ba61bddc7156af6665d7fe74c1a16e72ce48d43ffee64736f6c63430008090033",
  "linkReferences": {},
  "deployedLinkReferences": {}
}