{
  "_format": "hh-sol-artifact-1",
  "contractName": "Errors1",
  "sourceName": "contracts/Errors.sol",
  "abi": [
    {
      "inputs": [
        {
          "internalType": "uint256",
          "name": "value",
          "type": "uint256"
        }
      ],
      "name": "InvalidValue",
      "type": "error"
    },
    {
      "anonymous": false,
      "inputs": [
        {
          "indexed": false,
          "internalType": "string",
          "name": "message",
          "type": "string"
        }
      ],
      "name": "Log",
      "type": "event"
    },
    {
      "inputs": [
        {
          "internalType": "uint256",
          "name": "_value",
          "type": "uint256"
        }
      ],
      "name": "example1",
      "outputs": [],
      "stateMutability": "nonpayable",
      "type": "function"
    },
    {
      "inputs": [
        {
          "internalType": "uint256",
          "name": "_value",
          "type": "uint256"
        }
      ],
      "name": "example2",
      "outputs": [],
      "stateMutability": "nonpayable",
      "type": "function"
    },
    {
      "inputs": [
        {
          "internalType": "uint256",
          "name": "_value",
          "type": "uint256"
        }
      ],
      "name": "example3",
      "outputs": [],
      "stateMutability": "nonpayable",
      "type": "function"
    },
    {
      "inputs": [
        {
          "internalType": "uint256",
          "name": "_value",
          "type": "uint256"
        }
      ],
      "name": "example4",
      "outputs": [],
      "stateMutability": "nonpayable",
      "type": "function"
    }
  ],
  "bytecode": "0x608060405234801561001057600080fd5b5061045d806100206000396000f3fe608060405234801561001057600080fd5b506004361061004c5760003560e01c8063188166a71461005157806319b2e54f1461006d578063bbc11a3014610089578063c6fb5866146100a5575b600080fd5b61006b600480360381019061006691906102b8565b6100c1565b005b610087600480360381019061008291906102b8565b61010a565b005b6100a3600480360381019061009e91906102b8565b610185565b005b6100bf60048036038101906100ba91906102b8565b610202565b005b600a81146100d2576100d16102e5565b5b7fcf34ef537ac33ee1ac626ca1587a0a7e8e51561e5514f8cb36afa1c5102b3bab6040516100ff90610371565b60405180910390a150565b600a811161014d576040517f08c379a0000000000000000000000000000000000000000000000000000000008152600401610144906103dd565b60405180910390fd5b7fcf34ef537ac33ee1ac626ca1587a0a7e8e51561e5514f8cb36afa1c5102b3bab60405161017a90610371565b60405180910390a150565b600a81116101ca57806040517f6072742c0000000000000000000000000000000000000000000000000000000081526004016101c1919061040c565b60405180910390fd5b7fcf34ef537ac33ee1ac626ca1587a0a7e8e51561e5514f8cb36afa1c5102b3bab6040516101f790610371565b60405180910390a150565b600a8111610245576040517f08c379a000000000000000000000000000000000000000000000000000000000815260040161023c906103dd565b60405180910390fd5b7fcf34ef537ac33ee1ac626ca1587a0a7e8e51561e5514f8cb36afa1c5102b3bab60405161027290610371565b60405180910390a150565b600080fd5b6000819050919050565b61029581610282565b81146102a057600080fd5b50565b6000813590506102b28161028c565b92915050565b6000602082840312156102ce576102cd61027d565b5b60006102dc848285016102a3565b91505092915050565b7f4e487b7100000000000000000000000000000000000000000000000000000000600052600160045260246000fd5b600082825260208201905092915050565b7f7375636365737300000000000000000000000000000000000000000000000000600082015250565b600061035b600783610314565b915061036682610325565b602082019050919050565b6000602082019050818103600083015261038a8161034e565b9050919050565b7f6d7573742062652067726561746572207468616e203130000000000000000000600082015250565b60006103c7601783610314565b91506103d282610391565b602082019050919050565b600060208201905081810360008301526103f6816103ba565b9050919050565b61040681610282565b82525050565b600060208201905061042160008301846103fd565b9291505056fea2646970667358221220647a648fdd90dd0d1715893d1326c0c77cb654957d516ed829afb1c727c70a5a64736f6c63430008090033",
  "linkReferences": {},
  "deployedLinkReferences": {}
}